{
  "contractName": "Bank",
  "abi": [
    {
      "inputs": [
        {
          "internalType": "contract Token",
          "name": "_token",
          "type": "address"
        }
      ],
      "stateMutability": "nonpayable",
      "type": "constructor"
    },
    {
      "inputs": [
        {
          "internalType": "address",
          "name": "",
          "type": "address"
        }
      ],
      "name": "clientsBalanceBNB",
      "outputs": [
        {
          "internalType": "uint256",
          "name": "",
          "type": "uint256"
        }
      ],
      "stateMutability": "view",
      "type": "function",
      "constant": true
    },
    {
      "inputs": [
        {
          "internalType": "address",
          "name": "",
          "type": "address"
        }
      ],
      "name": "depositTimeStamp",
      "outputs": [
        {
          "internalType": "uint256",
          "name": "",
          "type": "uint256"
        }
      ],
      "stateMutability": "view",
      "type": "function",
      "constant": true
    },
    {
      "inputs": [
        {
          "internalType": "address",
          "name": "",
          "type": "address"
        }
      ],
      "name": "isDeposited",
      "outputs": [
        {
          "internalType": "bool",
          "name": "",
          "type": "bool"
        }
      ],
      "stateMutability": "view",
      "type": "function",
      "constant": true
    },
    {
      "inputs": [],
      "name": "deposit",
      "outputs": [],
      "stateMutability": "payable",
      "type": "function",
      "payable": true
    },
    {
      "inputs": [],
      "name": "withdraw",
      "outputs": [],
      "stateMutability": "nonpayable",
      "type": "function"
    }
  ],
  "bytecode": "0x608060405234801561001057600080fd5b50604051610a81380380610a81833981810160405281019061003291906100ed565b806000806101000a81548173ffffffffffffffffffffffffffffffffffffffff021916908373ffffffffffffffffffffffffffffffffffffffff1602179055505061011a565b600080fd5b600073ffffffffffffffffffffffffffffffffffffffff82169050919050565b60006100a88261007d565b9050919050565b60006100ba8261009d565b9050919050565b6100ca816100af565b81146100d557600080fd5b50565b6000815190506100e7816100c1565b92915050565b60006020828403121561010357610102610078565b5b6000610111848285016100d8565b91505092915050565b610958806101296000396000f3fe60806040526004361061004a5760003560e01c8063249ee9e11461004f5780633ccfd60b1461008c57806373732024146100a3578063d0e30db0146100e0578063dff05f82146100ea575b600080fd5b34801561005b57600080fd5b5061007660048036038101906100719190610663565b610127565b60405161008391906106a9565b60405180910390f35b34801561009857600080fd5b506100a161013f565b005b3480156100af57600080fd5b506100ca60048036038101906100c59190610663565b61049c565b6040516100d791906106df565b60405180910390f35b6100e86104bc565b005b3480156100f657600080fd5b50610111600480360381019061010c9190610663565b6105e8565b60405161011e91906106a9565b60405180910390f35b60016020528060005260406000206000915090505481565b60011515600360003373ffffffffffffffffffffffffffffffffffffffff1673ffffffffffffffffffffffffffffffffffffffff16815260200190815260200160002060009054906101000a900460ff161515146101d2576040517f08c379a00000000000000000000000000000000000000000000000000000000081526004016101c990610757565b60405180910390fd5b6000600260003373ffffffffffffffffffffffffffffffffffffffff1673ffffffffffffffffffffffffffffffffffffffff168152602001908152602001600020544261021f91906107a6565b905060006301e33731600160003373ffffffffffffffffffffffffffffffffffffffff1673ffffffffffffffffffffffffffffffffffffffff16815260200190815260200160002054606461027491906107da565b61027e9190610863565b90506000828261028e91906107da565b90503373ffffffffffffffffffffffffffffffffffffffff166108fc661c6bf526340000600160003373ffffffffffffffffffffffffffffffffffffffff1673ffffffffffffffffffffffffffffffffffffffff168152602001908152602001600020546102fc91906107a6565b9081150290604051600060405180830381858888f19350505050158015610327573d6000803e3d6000fd5b506000600160003373ffffffffffffffffffffffffffffffffffffffff1673ffffffffffffffffffffffffffffffffffffffff1681526020019081526020016000208190555060008054906101000a900473ffffffffffffffffffffffffffffffffffffffff1673ffffffffffffffffffffffffffffffffffffffff166340c10f1933836040518363ffffffff1660e01b81526004016103c89291906108a3565b600060405180830381600087803b1580156103e257600080fd5b505af11580156103f6573d6000803e3d6000fd5b505050506000600260003373ffffffffffffffffffffffffffffffffffffffff1673ffffffffffffffffffffffffffffffffffffffff168152602001908152602001600020819055506000600360003373ffffffffffffffffffffffffffffffffffffffff1673ffffffffffffffffffffffffffffffffffffffff16815260200190815260200160002060006101000a81548160ff021916908315150217905550505050565b60036020528060005260406000206000915054906101000a900460ff1681565b34600160003373ffffffffffffffffffffffffffffffffffffffff1673ffffffffffffffffffffffffffffffffffffffff1681526020019081526020016000205461050791906108cc565b600160003373ffffffffffffffffffffffffffffffffffffffff1673ffffffffffffffffffffffffffffffffffffffff1681526020019081526020016000208190555042600260003373ffffffffffffffffffffffffffffffffffffffff1673ffffffffffffffffffffffffffffffffffffffff168152602001908152602001600020819055506001600360003373ffffffffffffffffffffffffffffffffffffffff1673ffffffffffffffffffffffffffffffffffffffff16815260200190815260200160002060006101000a81548160ff021916908315150217905550565b60026020528060005260406000206000915090505481565b600080fd5b600073ffffffffffffffffffffffffffffffffffffffff82169050919050565b600061063082610605565b9050919050565b61064081610625565b811461064b57600080fd5b50565b60008135905061065d81610637565b92915050565b60006020828403121561067957610678610600565b5b60006106878482850161064e565b91505092915050565b6000819050919050565b6106a381610690565b82525050565b60006020820190506106be600083018461069a565b92915050565b60008115159050919050565b6106d9816106c4565b82525050565b60006020820190506106f460008301846106d0565b92915050565b600082825260208201905092915050565b7f4572726f722c206e6f2070726576696f7573206465706f736974000000000000600082015250565b6000610741601a836106fa565b915061074c8261070b565b602082019050919050565b6000602082019050818103600083015261077081610734565b9050919050565b7f4e487b7100000000000000000000000000000000000000000000000000000000600052601160045260246000fd5b60006107b182610690565b91506107bc83610690565b9250828210156107cf576107ce610777565b5b828203905092915050565b60006107e582610690565b91506107f083610690565b9250817fffffffffffffffffffffffffffffffffffffffffffffffffffffffffffffffff048311821515161561082957610828610777565b5b828202905092915050565b7f4e487b7100000000000000000000000000000000000000000000000000000000600052601260045260246000fd5b600061086e82610690565b915061087983610690565b92508261088957610888610834565b5b828204905092915050565b61089d81610625565b82525050565b60006040820190506108b86000830185610894565b6108c5602083018461069a565b9392505050565b60006108d782610690565b91506108e283610690565b9250827fffffffffffffffffffffffffffffffffffffffffffffffffffffffffffffffff0382111561091757610916610777565b5b82820190509291505056fea2646970667358221220f11b72d908c2f2952afd18bebae335a0e13c8a1fdc8bff9ff8c953b6d01ab0c464736f6c634300080a0033",
  "immutableReferences": {},
  "source": "pragma solidity ^0.8.10;\r\nimport \"./Token.sol\";\r\n\r\ncontract Bank {\r\n    //assign Token contract to variable\r\n    Token private token;\r\n    \r\n    // hash address - uint\r\n    mapping(address => uint) public clientsBalanceBNB;\r\n    mapping(address => uint) public depositTimeStamp;\r\n    mapping(address => bool) public isDeposited;\r\n\r\n    //pass as constructor argument deployed Token contract\r\n    constructor(Token _token) public {\r\n        //assign token deployed contract to variable\r\n        token = _token;\r\n    }\r\n\r\n    function deposit() payable public {\r\n        clientsBalanceBNB[msg.sender] = clientsBalanceBNB[msg.sender] + msg.value;\r\n        depositTimeStamp[msg.sender] = block.timestamp;\r\n        isDeposited[msg.sender] = true; \r\n    }\r\n\r\n    function withdraw() public {\r\n        require(isDeposited[msg.sender] == true, 'Error, no previous deposit');\r\n\r\n        // interest BMIW\r\n        uint depositTotalTime = block.timestamp - depositTimeStamp[msg.sender];\r\n        uint interestPerSecond = (100*clientsBalanceBNB[msg.sender]) / 31668017;\r\n        uint interest = interestPerSecond * depositTotalTime;\r\n\r\n\r\n        // return the BNB to original wallet\r\n        payable(msg.sender).transfer(clientsBalanceBNB[msg.sender] - 0.008 ether );\r\n        clientsBalanceBNB[msg.sender] = 0;\r\n\r\n        // Crear el token y lo envia a la addres del msg.sender\r\n        token.mint(msg.sender, interest);\r\n        // reiniciar reposito\r\n        depositTimeStamp[msg.sender] = 0;\r\n        isDeposited[msg.sender] = false;\r\n\r\n    }\r\n\r\n\r\n}\r\n",
  "sourcePath": "C:\\Users\\jorda\\Desktop\\Solidity\\2bnb-banco\\contracts\\Bank.sol",
  "compiler": {
    "name": "solc",
    "version": "0.8.10+commit.fc410830.Emscripten.clang"
  },
  "schemaVersion": "3.4.16",
  "updatedAt": "2023-10-14T11:40:12.722Z",
  "networkType": "ethereum",
  "devdoc": {
    "kind": "dev",
    "methods": {},
    "version": 1
  },
  "userdoc": {
    "kind": "user",
    "methods": {},
    "version": 1
  }
}