{
  "contractName": "MyContract",
  "abi": [
    {
      "inputs": [],
      "name": "admin",
      "outputs": [
        {
          "internalType": "address payable",
          "name": "",
          "type": "address"
        }
      ],
      "stateMutability": "view",
      "type": "function",
      "constant": true
    },
    {
      "inputs": [],
      "name": "balanceWei",
      "outputs": [
        {
          "internalType": "uint256",
          "name": "",
          "type": "uint256"
        }
      ],
      "stateMutability": "view",
      "type": "function",
      "constant": true
    },
    {
      "inputs": [
        {
          "internalType": "uint256",
          "name": "",
          "type": "uint256"
        }
      ],
      "name": "tikets",
      "outputs": [
        {
          "internalType": "address",
          "name": "",
          "type": "address"
        }
      ],
      "stateMutability": "view",
      "type": "function",
      "constant": true
    },
    {
      "inputs": [],
      "name": "retirarBalance",
      "outputs": [],
      "stateMutability": "nonpayable",
      "type": "function"
    },
    {
      "inputs": [
        {
          "internalType": "uint256",
          "name": "tiketIndex",
          "type": "uint256"
        }
      ],
      "name": "buyTiket",
      "outputs": [
        {
          "internalType": "bool",
          "name": "",
          "type": "bool"
        }
      ],
      "stateMutability": "payable",
      "type": "function",
      "payable": true
    },
    {
      "inputs": [],
      "name": "getTikets",
      "outputs": [
        {
          "internalType": "address[16]",
          "name": "",
          "type": "address[16]"
        }
      ],
      "stateMutability": "view",
      "type": "function",
      "constant": true
    }
  ],
  "bytecode": "0x608060405260006010557350d3b84a2b1787b7704dd50c67733b6b5b293629601160006101000a81548173ffffffffffffffffffffffffffffffffffffffff021916908373ffffffffffffffffffffffffffffffffffffffff16021790555034801561006a57600080fd5b506108968061007a6000396000f3fe6080604052600436106100555760003560e01c80634d63e2061461005a5780638aeeae49146100975780638f627444146100c7578063be4fb14d146100f2578063cfe9ff0a1461011d578063f851a44014610134575b600080fd5b34801561006657600080fd5b50610081600480360381019061007c91906104f9565b61015f565b60405161008e9190610567565b60405180910390f35b6100b160048036038101906100ac91906104f9565b610195565b6040516100be919061059d565b60405180910390f35b3480156100d357600080fd5b506100dc6102e9565b6040516100e99190610663565b60405180910390f35b3480156100fe57600080fd5b5061010761036a565b604051610114919061068e565b60405180910390f35b34801561012957600080fd5b50610132610370565b005b34801561014057600080fd5b50610149610475565b60405161015691906106ca565b60405180910390f35b6000816010811061016f57600080fd5b016000915054906101000a900473ffffffffffffffffffffffffffffffffffffffff1681565b60008082101580156101a85750600f8211155b6101b157600080fd5b66470de4df82000034146101fa576040517f08c379a00000000000000000000000000000000000000000000000000000000081526004016101f190610742565b60405180910390fd5b346010600082825461020c9190610791565b92505081905550600060019050600073ffffffffffffffffffffffffffffffffffffffff1660008460108110610245576102446107c5565b5b0160009054906101000a900473ffffffffffffffffffffffffffffffffffffffff1673ffffffffffffffffffffffffffffffffffffffff16036102db573360008460108110610297576102966107c5565b5b0160006101000a81548173ffffffffffffffffffffffffffffffffffffffff021916908373ffffffffffffffffffffffffffffffffffffffff1602179055506102e0565b600090505b80915050919050565b6102f161049b565b6000601080602002604051908101604052809291908260108015610360576020028201915b8160009054906101000a900473ffffffffffffffffffffffffffffffffffffffff1673ffffffffffffffffffffffffffffffffffffffff1681526020019060010190808311610316575b5050505050905090565b60105481565b601160009054906101000a900473ffffffffffffffffffffffffffffffffffffffff1673ffffffffffffffffffffffffffffffffffffffff163373ffffffffffffffffffffffffffffffffffffffff1614610400576040517f08c379a00000000000000000000000000000000000000000000000000000000081526004016103f790610840565b60405180910390fd5b601160009054906101000a900473ffffffffffffffffffffffffffffffffffffffff1673ffffffffffffffffffffffffffffffffffffffff166108fc6010549081150290604051600060405180830381858888f1935050505015801561046a573d6000803e3d6000fd5b506000601081905550565b601160009054906101000a900473ffffffffffffffffffffffffffffffffffffffff1681565b604051806102000160405280601090602082028036833780820191505090505090565b600080fd5b6000819050919050565b6104d6816104c3565b81146104e157600080fd5b50565b6000813590506104f3816104cd565b92915050565b60006020828403121561050f5761050e6104be565b5b600061051d848285016104e4565b91505092915050565b600073ffffffffffffffffffffffffffffffffffffffff82169050919050565b600061055182610526565b9050919050565b61056181610546565b82525050565b600060208201905061057c6000830184610558565b92915050565b60008115159050919050565b61059781610582565b82525050565b60006020820190506105b2600083018461058e565b92915050565b600060109050919050565b600081905092915050565b6000819050919050565b6105e181610546565b82525050565b60006105f383836105d8565b60208301905092915050565b6000602082019050919050565b610615816105b8565b61061f81846105c3565b925061062a826105ce565b8060005b8381101561065b57815161064287826105e7565b965061064d836105ff565b92505060018101905061062e565b505050505050565b600061020082019050610679600083018461060c565b92915050565b610688816104c3565b82525050565b60006020820190506106a3600083018461067f565b92915050565b60006106b482610526565b9050919050565b6106c4816106a9565b82525050565b60006020820190506106df60008301846106bb565b92915050565b600082825260208201905092915050565b7f496e737566696369656e7420616d6f756e74206f6620424e4200000000000000600082015250565b600061072c6019836106e5565b9150610737826106f6565b602082019050919050565b6000602082019050818103600083015261075b8161071f565b9050919050565b7f4e487b7100000000000000000000000000000000000000000000000000000000600052601160045260246000fd5b600061079c826104c3565b91506107a7836104c3565b92508282019050808211156107bf576107be610762565b5b92915050565b7f4e487b7100000000000000000000000000000000000000000000000000000000600052603260045260246000fd5b7f4e6f206572657320656c2061646d696e00000000000000000000000000000000600082015250565b600061082a6010836106e5565b9150610835826107f4565b602082019050919050565b600060208201905081810360008301526108598161081d565b905091905056fea26469706673582212207bd62a9c2d6ffd231a8e4a29dcbb961ec2dd977528edc05fcdff59d57aceda2d64736f6c63430008110033",
  "immutableReferences": {},
  "source": "pragma solidity ^0.8.0;\r\n\r\ncontract MyContract {\r\n    address[16] public tikets;\r\n    uint public balanceWei = 0;\r\n    address payable public admin  = payable(0x50d3b84a2b1787b7704DD50c67733b6b5B293629);\r\n\r\n    function retirarBalance () public {\r\n        require(msg.sender == admin, \"No eres el admin\");\r\n        \r\n        admin.transfer(balanceWei);\r\n        balanceWei = 0;\r\n    }\r\n\r\n\r\n    function buyTiket(uint tiketIndex) payable public returns (bool) {\r\n        // Comprobacin\r\n        require(tiketIndex >= 0 && tiketIndex <= 15);\r\n\r\n        require(msg.value == 0.02 ether, \"Insuficient amount of BNB\");\r\n        balanceWei += msg.value;\r\n\r\n        bool sucess = true;\r\n        \r\n        if ( tikets[tiketIndex] == address(0) ){\r\n            // msg.sender address del usuario que invoco al contrato\r\n            tikets[tiketIndex] = msg.sender;\r\n        } else {\r\n            sucess = false ;\r\n        }\r\n\r\n        return sucess;\r\n    }\r\n\r\n    function getTikets() public view returns (address[16] memory) {\r\n        return tikets;\r\n    }\r\n\r\n}\r\n",
  "sourcePath": "C:\\Users\\jorda\\Desktop\\Solidity\\1bnb\\contracts\\MyContract.sol",
  "compiler": {
    "name": "solc",
    "version": "0.8.17+commit.8df45f5f.Emscripten.clang"
  },
  "schemaVersion": "3.4.16",
  "updatedAt": "2023-10-13T21:36:35.427Z",
  "networkType": "ethereum",
  "devdoc": {
    "kind": "dev",
    "methods": {},
    "version": 1
  },
  "userdoc": {
    "kind": "user",
    "methods": {},
    "version": 1
  }
}