{
  "contractName": "Piedra",
  "abi": [
    {
      "anonymous": false,
      "inputs": [
        {
          "indexed": true,
          "internalType": "address",
          "name": "sender",
          "type": "address"
        },
        {
          "indexed": false,
          "internalType": "uint256",
          "name": "value",
          "type": "uint256"
        }
      ],
      "name": "TrasferEmmited",
      "type": "event"
    },
    {
      "anonymous": false,
      "inputs": [
        {
          "indexed": true,
          "internalType": "address",
          "name": "sender",
          "type": "address"
        },
        {
          "indexed": false,
          "internalType": "address",
          "name": "value",
          "type": "address"
        }
      ],
      "name": "TrasferEmmitedAddress",
      "type": "event"
    },
    {
      "inputs": [],
      "name": "jugador1",
      "outputs": [
        {
          "internalType": "address payable",
          "name": "",
          "type": "address"
        }
      ],
      "stateMutability": "view",
      "type": "function",
      "constant": true
    },
    {
      "inputs": [],
      "name": "jugador2",
      "outputs": [
        {
          "internalType": "address payable",
          "name": "",
          "type": "address"
        }
      ],
      "stateMutability": "view",
      "type": "function",
      "constant": true
    },
    {
      "inputs": [],
      "name": "getOpcionJugador1",
      "outputs": [
        {
          "internalType": "uint8",
          "name": "",
          "type": "uint8"
        }
      ],
      "stateMutability": "view",
      "type": "function",
      "constant": true
    },
    {
      "inputs": [],
      "name": "getOpcionJugador2",
      "outputs": [
        {
          "internalType": "uint8",
          "name": "",
          "type": "uint8"
        }
      ],
      "stateMutability": "view",
      "type": "function",
      "constant": true
    },
    {
      "inputs": [
        {
          "internalType": "uint8",
          "name": "opcion",
          "type": "uint8"
        }
      ],
      "name": "jugar",
      "outputs": [],
      "stateMutability": "payable",
      "type": "function",
      "payable": true
    }
  ],
  "bytecode": "0x608060405260016000806101000a81548160ff021916908360ff1602179055506002600060016101000a81548160ff021916908360ff1602179055506003600060026101000a81548160ff021916908360ff16021790555060008060176101000a81548160ff021916908360ff1602179055506000600160146101000a81548160ff021916908360ff16021790555034801561009a57600080fd5b50610bb2806100aa6000396000f3fe60806040526004361061004a5760003560e01c806312629c891461004f57806324c578121461007a5780633dc7a9eb146100a557806373efe52c146100d0578063e22069e5146100ec575b600080fd5b34801561005b57600080fd5b50610064610117565b6040516100719190610950565b60405180910390f35b34801561008657600080fd5b5061008f61012e565b60405161009c9190610950565b60405180910390f35b3480156100b157600080fd5b506100ba610144565b6040516100c791906109ac565b60405180910390f35b6100ea60048036038101906100e591906109f8565b61016a565b005b3480156100f857600080fd5b5061010161090e565b60405161010e91906109ac565b60405180910390f35b6000600160149054906101000a900460ff16905090565b60008060179054906101000a900460ff16905090565b600160009054906101000a900473ffffffffffffffffffffffffffffffffffffffff1681565b66470de4df82000034146101b3576040517f08c379a00000000000000000000000000000000000000000000000000000000081526004016101aa90610a82565b60405180910390fd5b60008060179054906101000a900460ff1660ff16141561022e5733600060036101000a81548173ffffffffffffffffffffffffffffffffffffffff021916908373ffffffffffffffffffffffffffffffffffffffff16021790555080600060176101000a81548160ff021916908360ff16021790555061090b565b6000600160149054906101000a900460ff1660ff1614156102aa5733600160006101000a81548173ffffffffffffffffffffffffffffffffffffffff021916908373ffffffffffffffffffffffffffffffffffffffff16021790555080600160146101000a81548160ff021916908360ff16021790555061090a565b60008054906101000a900460ff1660ff16600060179054906101000a900460ff1660ff161480156102fe5750600060029054906101000a900460ff1660ff16600160149054906101000a900460ff1660ff16145b806103595750600060019054906101000a900460ff1660ff16600060179054906101000a900460ff1660ff16148015610358575060008054906101000a900460ff1660ff16600160149054906101000a900460ff1660ff16145b5b806103b65750600060029054906101000a900460ff1660ff16600060179054906101000a900460ff1660ff161480156103b55750600060019054906101000a900460ff1660ff16600160149054906101000a900460ff1660ff16145b5b1561052c57600060039054906101000a900473ffffffffffffffffffffffffffffffffffffffff1673ffffffffffffffffffffffffffffffffffffffff167f0bc12356a468df47477ffd196224a78caa42dee212ccc6d61039cb7e87c73e7e60046040516104249190610af1565b60405180910390a260008060039054906101000a900473ffffffffffffffffffffffffffffffffffffffff1673ffffffffffffffffffffffffffffffffffffffff166108fc667c5850872380009081150290604051600060405180830381858888f193505050509050801561052657600060039054906101000a900473ffffffffffffffffffffffffffffffffffffffff1673ffffffffffffffffffffffffffffffffffffffff167fa060bacd4df54424b05c0ad10f4ced02d86bcdb18f1a1dee46d6308005143674600060039054906101000a900473ffffffffffffffffffffffffffffffffffffffff1660405161051d9190610b61565b60405180910390a25b50610891565b60008054906101000a900460ff1660ff16600160149054906101000a900460ff1660ff161480156105805750600060029054906101000a900460ff1660ff16600060179054906101000a900460ff1660ff16145b806105db5750600060019054906101000a900460ff1660ff16600160149054906101000a900460ff1660ff161480156105da575060008054906101000a900460ff1660ff16600060179054906101000a900460ff1660ff16145b5b806106385750600060029054906101000a900460ff1660ff16600160149054906101000a900460ff1660ff161480156106375750600060019054906101000a900460ff1660ff16600060179054906101000a900460ff1660ff16145b5b156107af57600160009054906101000a900473ffffffffffffffffffffffffffffffffffffffff1673ffffffffffffffffffffffffffffffffffffffff167f0bc12356a468df47477ffd196224a78caa42dee212ccc6d61039cb7e87c73e7e60046040516106a69190610af1565b60405180910390a26000600160009054906101000a900473ffffffffffffffffffffffffffffffffffffffff1673ffffffffffffffffffffffffffffffffffffffff166108fc667c5850872380009081150290604051600060405180830381858888f19350505050905080156107a957600160009054906101000a900473ffffffffffffffffffffffffffffffffffffffff1673ffffffffffffffffffffffffffffffffffffffff167fa060bacd4df54424b05c0ad10f4ced02d86bcdb18f1a1dee46d6308005143674600160009054906101000a900473ffffffffffffffffffffffffffffffffffffffff166040516107a09190610b61565b60405180910390a25b50610890565b600060039054906101000a900473ffffffffffffffffffffffffffffffffffffffff1673ffffffffffffffffffffffffffffffffffffffff166108fc66354a6ba7a180009081150290604051600060405180830381858888f1935050505015801561081e573d6000803e3d6000fd5b50600160009054906101000a900473ffffffffffffffffffffffffffffffffffffffff1673ffffffffffffffffffffffffffffffffffffffff166108fc66354a6ba7a180009081150290604051600060405180830381858888f1935050505015801561088e573d6000803e3d6000fd5b505b5b6000600160146101000a81548160ff021916908360ff16021790555033600060036101000a81548173ffffffffffffffffffffffffffffffffffffffff021916908373ffffffffffffffffffffffffffffffffffffffff16021790555080600060176101000a81548160ff021916908360ff1602179055505b5b50565b600060039054906101000a900473ffffffffffffffffffffffffffffffffffffffff1681565b600060ff82169050919050565b61094a81610934565b82525050565b60006020820190506109656000830184610941565b92915050565b600073ffffffffffffffffffffffffffffffffffffffff82169050919050565b60006109968261096b565b9050919050565b6109a68161098b565b82525050565b60006020820190506109c1600083018461099d565b92915050565b600080fd5b6109d581610934565b81146109e057600080fd5b50565b6000813590506109f2816109cc565b92915050565b600060208284031215610a0e57610a0d6109c7565b5b6000610a1c848285016109e3565b91505092915050565b600082825260208201905092915050565b7f496e737566696369656e7420616d6f756e74206f6620424e4200000000000000600082015250565b6000610a6c601983610a25565b9150610a7782610a36565b602082019050919050565b60006020820190508181036000830152610a9b81610a5f565b9050919050565b6000819050919050565b6000819050919050565b6000819050919050565b6000610adb610ad6610ad184610aa2565b610ab6565b610aac565b9050919050565b610aeb81610ac0565b82525050565b6000602082019050610b066000830184610ae2565b92915050565b6000610b27610b22610b1d8461096b565b610ab6565b61096b565b9050919050565b6000610b3982610b0c565b9050919050565b6000610b4b82610b2e565b9050919050565b610b5b81610b40565b82525050565b6000602082019050610b766000830184610b52565b9291505056fea2646970667358221220d61ac431cb850931184d07874b0f1ce5fb0433abc59d7b0d672adb9492e37e4d64736f6c634300080a0033",
  "immutableReferences": {},
  "source": "pragma solidity ^0.8.10;\r\n\r\ncontract Piedra {\r\n    //assign Token contract to variable\r\n    event TrasferEmmitedAddress(address indexed sender, address value);\r\n    event TrasferEmmited(address indexed sender, uint256 value);\r\n    uint8 PIEDRA = 1;\r\n    uint8 PAPEL = 2;\r\n    uint8 TIJERA = 3;\r\n\r\n    address payable public jugador1;\r\n    uint8 opcionJugador1 = 0; //piedra, papel, tijera 1 ,2 ,3 \r\n\r\n    address payable public jugador2; \r\n    uint8 opcionJugador2 = 0;\r\n\r\n    function getOpcionJugador1() public view returns (uint8) {\r\n        return opcionJugador1;\r\n    }\r\n\r\n    function getOpcionJugador2() public view returns (uint8) {\r\n        return opcionJugador2;\r\n    }\r\n\r\n    function jugar(uint8 opcion) payable public {\r\n        require(msg.value == 0.02 ether, \"Insuficient amount of BNB\");\r\n\r\n        if( opcionJugador1 == 0){\r\n            jugador1 = payable(msg.sender);\r\n            opcionJugador1 = opcion;\r\n\r\n        } else if (opcionJugador2 == 0){\r\n            jugador2 = payable(msg.sender);\r\n            opcionJugador2 = opcion;\r\n\r\n        } else {\r\n\r\n            // resolvemos\r\n            if( (opcionJugador1 == PIEDRA && opcionJugador2 == TIJERA) ||\r\n                (opcionJugador1 == PAPEL && opcionJugador2 == PIEDRA) ||\r\n                (opcionJugador1 == TIJERA && opcionJugador2 == PAPEL) ){\r\n                \r\n\r\n              \r\n                emit TrasferEmmited(jugador1,4);\r\n                bool success = jugador1.send( 0.035 ether );\r\n                if ( success ){\r\n                      emit TrasferEmmitedAddress(jugador1,jugador1);\r\n                }\r\n            \r\n            } else if ( (opcionJugador2 == PIEDRA && opcionJugador1 == TIJERA) ||\r\n                (opcionJugador2 == PAPEL && opcionJugador1 == PIEDRA) ||\r\n                (opcionJugador2 == TIJERA && opcionJugador1 == PAPEL) ){\r\n\r\n                emit TrasferEmmited(jugador2,4);\r\n                bool success = jugador2.send( 0.035 ether );\r\n                if ( success ){\r\n                       emit TrasferEmmitedAddress(jugador2,jugador2);\r\n                }\r\n            } else {\r\n                // nadie gana\r\n                jugador1.transfer( 0.015 ether  );\r\n                jugador2.transfer( 0.015 ether  );\r\n            }\r\n            // reiniciamos\r\n            //jugador1 = address(0);\r\n            //opcionJugador1 = 0;\r\n            //jugador2 = address(0);\r\n            opcionJugador2 = 0;\r\n\r\n            //Juega el 1\r\n            jugador1 = payable(msg.sender);\r\n            opcionJugador1 = opcion;\r\n        }\r\n    }\r\n}\r\n",
  "sourcePath": "C:\\Users\\jorda\\Desktop\\Solidity\\2bnb-piedra\\contracts\\Piedra.sol",
  "compiler": {
    "name": "solc",
    "version": "0.8.10+commit.fc410830.Emscripten.clang"
  },
  "schemaVersion": "3.4.16",
  "updatedAt": "2023-10-16T11:54:45.398Z",
  "networkType": "ethereum",
  "devdoc": {
    "kind": "dev",
    "methods": {},
    "version": 1
  },
  "userdoc": {
    "kind": "user",
    "methods": {},
    "version": 1
  }
}