{
  "contractName": "Piedra",
  "abi": [
    {
      "anonymous": false,
      "inputs": [
        {
          "indexed": true,
          "internalType": "address",
          "name": "sender",
          "type": "address"
        },
        {
          "indexed": false,
          "internalType": "uint256",
          "name": "value",
          "type": "uint256"
        }
      ],
      "name": "TrasferEmmited",
      "type": "event"
    },
    {
      "anonymous": false,
      "inputs": [
        {
          "indexed": true,
          "internalType": "address",
          "name": "sender",
          "type": "address"
        },
        {
          "indexed": false,
          "internalType": "address",
          "name": "value",
          "type": "address"
        }
      ],
      "name": "TrasferEmmitedAddress",
      "type": "event"
    },
    {
      "inputs": [],
      "name": "getOpcionJugador1",
      "outputs": [
        {
          "internalType": "uint8",
          "name": "",
          "type": "uint8"
        }
      ],
      "stateMutability": "view",
      "type": "function",
      "constant": true
    },
    {
      "inputs": [],
      "name": "getOpcionJugador2",
      "outputs": [
        {
          "internalType": "uint8",
          "name": "",
          "type": "uint8"
        }
      ],
      "stateMutability": "view",
      "type": "function",
      "constant": true
    },
    {
      "inputs": [
        {
          "internalType": "uint8",
          "name": "opcion",
          "type": "uint8"
        }
      ],
      "name": "jugar",
      "outputs": [],
      "stateMutability": "payable",
      "type": "function",
      "payable": true
    }
  ],
  "bytecode": "0x608060405260016000806101000a81548160ff021916908360ff1602179055506002600060016101000a81548160ff021916908360ff1602179055506003600060026101000a81548160ff021916908360ff16021790555060008060176101000a81548160ff021916908360ff1602179055506000600160146101000a81548160ff021916908360ff16021790555034801561009a57600080fd5b506107cb806100aa6000396000f3fe6080604052600436106100345760003560e01c806312629c891461003957806324c578121461006457806373efe52c1461008f575b600080fd5b34801561004557600080fd5b5061004e6100ab565b60405161005b919061069f565b60405180910390f35b34801561007057600080fd5b506100796100c2565b604051610086919061069f565b60405180910390f35b6100a960048036038101906100a491906106eb565b6100d8565b005b6000600160149054906101000a900460ff16905090565b60008060179054906101000a900460ff16905090565b66470de4df8200003414610121576040517f08c379a000000000000000000000000000000000000000000000000000000000815260040161011890610775565b60405180910390fd5b60008060179054906101000a900460ff1660ff16141561019c5733600060036101000a81548173ffffffffffffffffffffffffffffffffffffffff021916908373ffffffffffffffffffffffffffffffffffffffff16021790555080600060176101000a81548160ff021916908360ff160217905550610680565b6000600160149054906101000a900460ff1660ff1614156102185733600160006101000a81548173ffffffffffffffffffffffffffffffffffffffff021916908373ffffffffffffffffffffffffffffffffffffffff16021790555080600160146101000a81548160ff021916908360ff16021790555061067f565b60008054906101000a900460ff1660ff16600060179054906101000a900460ff1660ff1614801561026c5750600060029054906101000a900460ff1660ff16600160149054906101000a900460ff1660ff16145b806102c75750600060019054906101000a900460ff1660ff16600060179054906101000a900460ff1660ff161480156102c6575060008054906101000a900460ff1660ff16600160149054906101000a900460ff1660ff16145b5b806103245750600060029054906101000a900460ff1660ff16600060179054906101000a900460ff1660ff161480156103235750600060019054906101000a900460ff1660ff16600160149054906101000a900460ff1660ff16145b5b1561039e57600060039054906101000a900473ffffffffffffffffffffffffffffffffffffffff1673ffffffffffffffffffffffffffffffffffffffff166108fc667c5850872380009081150290604051600060405180830381858888f19350505050158015610398573d6000803e3d6000fd5b50610606565b60008054906101000a900460ff1660ff16600160149054906101000a900460ff1660ff161480156103f25750600060029054906101000a900460ff1660ff16600060179054906101000a900460ff1660ff16145b8061044d5750600060019054906101000a900460ff1660ff16600160149054906101000a900460ff1660ff1614801561044c575060008054906101000a900460ff1660ff16600060179054906101000a900460ff1660ff16145b5b806104aa5750600060029054906101000a900460ff1660ff16600160149054906101000a900460ff1660ff161480156104a95750600060019054906101000a900460ff1660ff16600060179054906101000a900460ff1660ff16145b5b1561052457600160009054906101000a900473ffffffffffffffffffffffffffffffffffffffff1673ffffffffffffffffffffffffffffffffffffffff166108fc667c5850872380009081150290604051600060405180830381858888f1935050505015801561051e573d6000803e3d6000fd5b50610605565b600060039054906101000a900473ffffffffffffffffffffffffffffffffffffffff1673ffffffffffffffffffffffffffffffffffffffff166108fc66354a6ba7a180009081150290604051600060405180830381858888f19350505050158015610593573d6000803e3d6000fd5b50600160009054906101000a900473ffffffffffffffffffffffffffffffffffffffff1673ffffffffffffffffffffffffffffffffffffffff166108fc66354a6ba7a180009081150290604051600060405180830381858888f19350505050158015610603573d6000803e3d6000fd5b505b5b6000600160146101000a81548160ff021916908360ff16021790555033600060036101000a81548173ffffffffffffffffffffffffffffffffffffffff021916908373ffffffffffffffffffffffffffffffffffffffff16021790555080600060176101000a81548160ff021916908360ff1602179055505b5b50565b600060ff82169050919050565b61069981610683565b82525050565b60006020820190506106b46000830184610690565b92915050565b600080fd5b6106c881610683565b81146106d357600080fd5b50565b6000813590506106e5816106bf565b92915050565b600060208284031215610701576107006106ba565b5b600061070f848285016106d6565b91505092915050565b600082825260208201905092915050565b7f496e737566696369656e7420616d6f756e74206f6620424e4200000000000000600082015250565b600061075f601983610718565b915061076a82610729565b602082019050919050565b6000602082019050818103600083015261078e81610752565b905091905056fea2646970667358221220728e3a30185a76ad472ebb9aa62890fb60351bc6a499481db68a482bcc9c272264736f6c634300080a0033",
  "immutableReferences": {},
  "source": "pragma solidity ^0.8.10;\r\n\r\ncontract Piedra {\r\n    //assign Token contract to variable\r\n    event TrasferEmmitedAddress(address indexed sender, address value);\r\n    event TrasferEmmited(address indexed sender, uint256 value);\r\n    uint8 PIEDRA = 1;\r\n    uint8 PAPEL = 2;\r\n    uint8 TIJERA = 3;\r\n\r\n    address jugador1;\r\n    uint8 opcionJugador1 = 0; //piedra, papel, tijera 1 ,2 ,3 \r\n\r\n    address jugador2; \r\n    uint8 opcionJugador2 = 0;\r\n\r\n    function getOpcionJugador1() public view returns (uint8) {\r\n        return opcionJugador1;\r\n    }\r\n\r\n    function getOpcionJugador2() public view returns (uint8) {\r\n        return opcionJugador2;\r\n    }\r\n\r\n    function jugar(uint8 opcion) payable public {\r\n        require(msg.value == 0.02 ether, \"Insuficient amount of BNB\");\r\n\r\n        if( opcionJugador1 == 0){\r\n            jugador1 = msg.sender;\r\n            opcionJugador1 = opcion;\r\n\r\n        } else if (opcionJugador2 == 0){\r\n            jugador2 = msg.sender;\r\n            opcionJugador2 = opcion;\r\n\r\n        } else {\r\n\r\n            // resolvemos\r\n            if( (opcionJugador1 == PIEDRA && opcionJugador2 == TIJERA) ||\r\n                (opcionJugador1 == PAPEL && opcionJugador2 == PIEDRA) ||\r\n                (opcionJugador1 == TIJERA && opcionJugador2 == PAPEL) ){\r\n            \r\n                payable(jugador1).transfer( 0.035 ether );\r\n            \r\n            } else if ( (opcionJugador2 == PIEDRA && opcionJugador1 == TIJERA) ||\r\n                (opcionJugador2 == PAPEL && opcionJugador1 == PIEDRA) ||\r\n                (opcionJugador2 == TIJERA && opcionJugador1 == PAPEL) ){\r\n\r\n                payable(jugador2).transfer( 0.035 ether );\r\n            } else {\r\n                // nadie gana\r\n                payable(jugador1).transfer( 0.015 ether  );\r\n                payable(jugador2).transfer( 0.015 ether  );\r\n            }\r\n            // reiniciamos\r\n            //jugador1 = address(0);\r\n            //opcionJugador1 = 0;\r\n            //jugador2 = address(0);\r\n            opcionJugador2 = 0;\r\n\r\n            //Juega el 1\r\n            jugador1 = msg.sender;\r\n            opcionJugador1 = opcion;\r\n        }\r\n    }\r\n}\r\n",
  "sourcePath": "C:\\Users\\jorda\\Desktop\\Solidity\\2bnb-piedra\\contracts\\Piedra.sol",
  "compiler": {
    "name": "solc",
    "version": "0.8.10+commit.fc410830.Emscripten.clang"
  },
  "schemaVersion": "3.4.16",
  "updatedAt": "2023-10-16T12:04:12.343Z",
  "networkType": "ethereum",
  "devdoc": {
    "kind": "dev",
    "methods": {},
    "version": 1
  },
  "userdoc": {
    "kind": "user",
    "methods": {},
    "version": 1
  }
}