{
  "contractName": "Registro",
  "abi": [
    {
      "anonymous": false,
      "inputs": [
        {
          "indexed": false,
          "internalType": "string",
          "name": "quien",
          "type": "string"
        },
        {
          "indexed": false,
          "internalType": "uint256",
          "name": "valor",
          "type": "uint256"
        }
      ],
      "name": "MiEvento",
      "type": "event"
    },
    {
      "inputs": [
        {
          "internalType": "string",
          "name": "mensajePeticion",
          "type": "string"
        }
      ],
      "name": "registrarPeticion",
      "outputs": [],
      "stateMutability": "payable",
      "type": "function",
      "payable": true
    },
    {
      "inputs": [],
      "name": "verPeticionActual",
      "outputs": [
        {
          "internalType": "string",
          "name": "",
          "type": "string"
        }
      ],
      "stateMutability": "view",
      "type": "function",
      "constant": true
    },
    {
      "inputs": [
        {
          "internalType": "uint256",
          "name": "respuesta",
          "type": "uint256"
        }
      ],
      "name": "contestarPeticionActual",
      "outputs": [],
      "stateMutability": "payable",
      "type": "function",
      "payable": true
    },
    {
      "inputs": [],
      "name": "getAllPeticiones",
      "outputs": [
        {
          "internalType": "string[]",
          "name": "",
          "type": "string[]"
        }
      ],
      "stateMutability": "view",
      "type": "function",
      "constant": true
    }
  ],
  "bytecode": "0x6080604052600060025560006003557350d3b84a2b1787b7704dd50c67733b6b5b293629600460006101000a81548173ffffffffffffffffffffffffffffffffffffffff021916908373ffffffffffffffffffffffffffffffffffffffff16021790555034801561006f57600080fd5b50610ce78061007f6000396000f3fe60806040526004361061003f5760003560e01c8063822a36af14610044578063be1223f014610060578063d48ca35b1461008b578063ed38ed1b146100a7575b600080fd5b61005e600480360381019061005991906106b0565b6100d2565b005b34801561006c57600080fd5b5061007561018c565b6040516100829190610858565b60405180910390f35b6100a560048036038101906100a091906108b0565b610265565b005b3480156100b357600080fd5b506100bc610462565b6040516100c99190610927565b60405180910390f35b6000339080600181540180825580915050600190039060005260206000200160009091909190916101000a81548173ffffffffffffffffffffffffffffffffffffffff021916908373ffffffffffffffffffffffffffffffffffffffff1602179055506001828290918060018154018082558091505060019003906000526020600020016000909192909192909192909192509190610172929190610518565b5060016003546101829190610978565b6003819055505050565b60606001805480602002602001604051908101604052809291908181526020016000905b8282101561025c5783829060005260206000200180546101cf906109fd565b80601f01602080910402602001604051908101604052809291908181526020018280546101fb906109fd565b80156102485780601f1061021d57610100808354040283529160200191610248565b820191906000526020600020905b81548152906001019060200180831161022b57829003601f168201915b5050505050815260200190600101906101b0565b50505050905090565b600460009054906101000a900473ffffffffffffffffffffffffffffffffffffffff1673ffffffffffffffffffffffffffffffffffffffff163373ffffffffffffffffffffffffffffffffffffffff16146102f5576040517f08c379a00000000000000000000000000000000000000000000000000000000081526004016102ec90610a7b565b60405180910390fd5b6003546002541061033b576040517f08c379a000000000000000000000000000000000000000000000000000000000815260040161033290610ae7565b60405180910390fd5b60018114156103cd5760016002548154811061035a57610359610b07565b5b906000526020600020016040516020016103749190610c21565b60405160208183030381529060405260016002548154811061039957610398610b07565b5b9060005260206000200190805190602001906103b692919061059e565b5060016002546103c69190610978565b6002819055505b600281141561045f576001600254815481106103ec576103eb610b07565b5b906000526020600020016040516020016104069190610c8f565b60405160208183030381529060405260016002548154811061042b5761042a610b07565b5b90600052602060002001908051906020019061044892919061059e565b5060016002546104589190610978565b6002819055505b50565b6060600060016002548154811061047c5761047b610b07565b5b906000526020600020018054610491906109fd565b80601f01602080910402602001604051908101604052809291908181526020018280546104bd906109fd565b801561050a5780601f106104df5761010080835404028352916020019161050a565b820191906000526020600020905b8154815290600101906020018083116104ed57829003601f168201915b505050505090508091505090565b828054610524906109fd565b90600052602060002090601f016020900481019282610546576000855561058d565b82601f1061055f57803560ff191683800117855561058d565b8280016001018555821561058d579182015b8281111561058c578235825591602001919060010190610571565b5b50905061059a9190610624565b5090565b8280546105aa906109fd565b90600052602060002090601f0160209004810192826105cc5760008555610613565b82601f106105e557805160ff1916838001178555610613565b82800160010185558215610613579182015b828111156106125782518255916020019190600101906105f7565b5b5090506106209190610624565b5090565b5b8082111561063d576000816000905550600101610625565b5090565b600080fd5b600080fd5b600080fd5b600080fd5b600080fd5b60008083601f8401126106705761066f61064b565b5b8235905067ffffffffffffffff81111561068d5761068c610650565b5b6020830191508360018202830111156106a9576106a8610655565b5b9250929050565b600080602083850312156106c7576106c6610641565b5b600083013567ffffffffffffffff8111156106e5576106e4610646565b5b6106f18582860161065a565b92509250509250929050565b600081519050919050565b600082825260208201905092915050565b6000819050602082019050919050565b600081519050919050565b600082825260208201905092915050565b60005b83811015610763578082015181840152602081019050610748565b83811115610772576000848401525b50505050565b6000601f19601f8301169050919050565b600061079482610729565b61079e8185610734565b93506107ae818560208601610745565b6107b781610778565b840191505092915050565b60006107ce8383610789565b905092915050565b6000602082019050919050565b60006107ee826106fd565b6107f88185610708565b93508360208202850161080a85610719565b8060005b85811015610846578484038952815161082785826107c2565b9450610832836107d6565b925060208a0199505060018101905061080e565b50829750879550505050505092915050565b6000602082019050818103600083015261087281846107e3565b905092915050565b6000819050919050565b61088d8161087a565b811461089857600080fd5b50565b6000813590506108aa81610884565b92915050565b6000602082840312156108c6576108c5610641565b5b60006108d48482850161089b565b91505092915050565b600082825260208201905092915050565b60006108f982610729565b61090381856108dd565b9350610913818560208601610745565b61091c81610778565b840191505092915050565b6000602082019050818103600083015261094181846108ee565b905092915050565b7f4e487b7100000000000000000000000000000000000000000000000000000000600052601160045260246000fd5b60006109838261087a565b915061098e8361087a565b9250827fffffffffffffffffffffffffffffffffffffffffffffffffffffffffffffffff038211156109c3576109c2610949565b5b828201905092915050565b7f4e487b7100000000000000000000000000000000000000000000000000000000600052602260045260246000fd5b60006002820490506001821680610a1557607f821691505b60208210811415610a2957610a286109ce565b5b50919050565b7f4e6f20657265732061646d696e20000000000000000000000000000000000000600082015250565b6000610a65600e836108dd565b9150610a7082610a2f565b602082019050919050565b60006020820190508181036000830152610a9481610a58565b9050919050565b7f4e6f20686179207065746963696f6e6573200000000000000000000000000000600082015250565b6000610ad16012836108dd565b9150610adc82610a9b565b602082019050919050565b60006020820190508181036000830152610b0081610ac4565b9050919050565b7f4e487b7100000000000000000000000000000000000000000000000000000000600052603260045260246000fd5b600081905092915050565b7f5b4e4f5d00000000000000000000000000000000000000000000000000000000600082015250565b6000610b77600483610b36565b9150610b8282610b41565b600482019050919050565b60008190508160005260206000209050919050565b60008154610baf816109fd565b610bb98186610b36565b94506001821660008114610bd45760018114610be557610c18565b60ff19831686528186019350610c18565b610bee85610b8d565b60005b83811015610c1057815481890152600182019150602081019050610bf1565b838801955050505b50505092915050565b6000610c2c82610b6a565b9150610c388284610ba2565b915081905092915050565b7f5b53495d00000000000000000000000000000000000000000000000000000000600082015250565b6000610c79600483610b36565b9150610c8482610c43565b600482019050919050565b6000610c9a82610c6c565b9150610ca68284610ba2565b91508190509291505056fea264697066735822122026ce26ac4b4c2f26a4fdc21656725833d557605f0678f570d18e662027dd5bc164736f6c634300080a0033",
  "immutableReferences": {},
  "source": "pragma solidity ^0.8.10;\r\n\r\n\r\ncontract Registro {\r\n\r\n    address[] private addressPeticiones;\r\n    string[] private textoPeticiones;\r\n  \r\n    uint256 private peticionAProcesar = 0;\r\n    uint256 private totalPeticiones = 0;\r\n\r\n    address adminAddress = 0x50d3b84a2b1787b7704DD50c67733b6b5B293629;\r\n\r\n    event MiEvento(string quien, uint256 valor);\r\n\r\n    function registrarPeticion(string calldata mensajePeticion) payable public {\r\n        addressPeticiones.push(msg.sender);\r\n        textoPeticiones.push(mensajePeticion);\r\n        totalPeticiones = totalPeticiones+1;\r\n    }\r\n\r\n    function verPeticionActual() view public returns (string memory){\r\n        string memory textoPeticionActual = textoPeticiones[peticionAProcesar];\r\n        return textoPeticionActual;\r\n    }\r\n\r\n    function contestarPeticionActual(uint256 respuesta) payable public {\r\n        require(msg.sender == adminAddress, \"No eres admin \");\r\n        require(peticionAProcesar < totalPeticiones, \"No hay peticiones \");\r\n\r\n        // 0 >= 1\r\n        if (respuesta == 1){\r\n            textoPeticiones[peticionAProcesar] = \r\n            string(abi.encodePacked(\"[NO]\",textoPeticiones[peticionAProcesar]));\r\n            peticionAProcesar = peticionAProcesar+1;\r\n        }\r\n        if (respuesta == 2){\r\n            textoPeticiones[peticionAProcesar] = \r\n            string(abi.encodePacked(\"[SI]\",textoPeticiones[peticionAProcesar]));\r\n            peticionAProcesar = peticionAProcesar+1;\r\n        }\r\n    }\r\n\r\n    function getAllPeticiones() view public returns (string[] memory){\r\n        return textoPeticiones;\r\n    }\r\n\r\n}\r\n",
  "sourcePath": "C:\\Users\\jorda\\Desktop\\Solidity\\2bnb-registro\\contracts\\Registro.sol",
  "compiler": {
    "name": "solc",
    "version": "0.8.10+commit.fc410830.Emscripten.clang"
  },
  "schemaVersion": "3.4.16",
  "updatedAt": "2023-10-18T11:30:22.143Z",
  "networkType": "ethereum",
  "devdoc": {
    "kind": "dev",
    "methods": {},
    "version": 1
  },
  "userdoc": {
    "kind": "user",
    "methods": {},
    "version": 1
  }
}