{
  "contractName": "SistemaVotacion",
  "abi": [
    {
      "inputs": [
        {
          "internalType": "contract TokenVote",
          "name": "_token",
          "type": "address"
        }
      ],
      "stateMutability": "nonpayable",
      "type": "constructor"
    },
    {
      "inputs": [
        {
          "internalType": "address",
          "name": "",
          "type": "address"
        }
      ],
      "name": "listaYaPidieronToken",
      "outputs": [
        {
          "internalType": "bool",
          "name": "",
          "type": "bool"
        }
      ],
      "stateMutability": "view",
      "type": "function",
      "constant": true
    },
    {
      "inputs": [
        {
          "internalType": "uint8",
          "name": "opcion",
          "type": "uint8"
        }
      ],
      "name": "vota",
      "outputs": [],
      "stateMutability": "payable",
      "type": "function",
      "payable": true
    },
    {
      "inputs": [],
      "name": "dameTokens",
      "outputs": [],
      "stateMutability": "payable",
      "type": "function",
      "payable": true
    },
    {
      "inputs": [],
      "name": "getVotosOpcion1",
      "outputs": [
        {
          "internalType": "uint256",
          "name": "",
          "type": "uint256"
        }
      ],
      "stateMutability": "view",
      "type": "function",
      "constant": true
    },
    {
      "inputs": [],
      "name": "getVotosOpcion2",
      "outputs": [
        {
          "internalType": "uint256",
          "name": "",
          "type": "uint256"
        }
      ],
      "stateMutability": "view",
      "type": "function",
      "constant": true
    }
  ],
  "bytecode": "0x60806040526000600255600060035534801561001a57600080fd5b50604051610968380380610968833981810160405281019061003c91906100f7565b806000806101000a81548173ffffffffffffffffffffffffffffffffffffffff021916908373ffffffffffffffffffffffffffffffffffffffff16021790555050610124565b600080fd5b600073ffffffffffffffffffffffffffffffffffffffff82169050919050565b60006100b282610087565b9050919050565b60006100c4826100a7565b9050919050565b6100d4816100b9565b81146100df57600080fd5b50565b6000815190506100f1816100cb565b92915050565b60006020828403121561010d5761010c610082565b5b600061011b848285016100e2565b91505092915050565b610835806101336000396000f3fe60806040526004361061004a5760003560e01c806308a3e1e81461004f5780631df0849b1461007a57806338e2a858146100a5578063bc47ad7c146100af578063f2130866146100cb575b600080fd5b34801561005b57600080fd5b50610064610108565b604051610071919061041c565b60405180910390f35b34801561008657600080fd5b5061008f610112565b60405161009c919061041c565b60405180910390f35b6100ad61011c565b005b6100c960048036038101906100c49190610475565b610288565b005b3480156100d757600080fd5b506100f260048036038101906100ed9190610500565b610390565b6040516100ff9190610548565b60405180910390f35b6000600354905090565b6000600254905090565b60011515600160003373ffffffffffffffffffffffffffffffffffffffff1673ffffffffffffffffffffffffffffffffffffffff16815260200190815260200160002060009054906101000a900460ff16151514610286576000670de0b6b3a76400006101876103b0565b60ff1661019491906105a6565b67ffffffffffffffff16905060008054906101000a900473ffffffffffffffffffffffffffffffffffffffff1673ffffffffffffffffffffffffffffffffffffffff166340c10f1933836040518363ffffffff1660e01b81526004016101fb9291906105f7565b600060405180830381600087803b15801561021557600080fd5b505af1158015610229573d6000803e3d6000fd5b5050505060018060003373ffffffffffffffffffffffffffffffffffffffff1673ffffffffffffffffffffffffffffffffffffffff16815260200190815260200160002060006101000a81548160ff021916908315150217905550505b565b60008060009054906101000a900473ffffffffffffffffffffffffffffffffffffffff1673ffffffffffffffffffffffffffffffffffffffff166370a08231336040518263ffffffff1660e01b81526004016102e49190610620565b602060405180830381865afa158015610301573d6000803e3d6000fd5b505050506040513d601f19601f820116820180604052508101906103259190610667565b9050600081111561038c576000670de0b6b3a76400008261034691906106c3565b905060018360ff161415610369578060025461036291906106f4565b6002819055505b60028360ff16141561038a578060035461038391906106f4565b6003819055505b505b5050565b60016020528060005260406000206000915054906101000a900460ff1681565b6000806001600a42446040516020016103ca92919061076b565b6040516020818303038152906040528051906020012060001c6103ed9190610797565b6103f791906107c8565b60ff1690508091505090565b6000819050919050565b61041681610403565b82525050565b6000602082019050610431600083018461040d565b92915050565b600080fd5b600060ff82169050919050565b6104528161043c565b811461045d57600080fd5b50565b60008135905061046f81610449565b92915050565b60006020828403121561048b5761048a610437565b5b600061049984828501610460565b91505092915050565b600073ffffffffffffffffffffffffffffffffffffffff82169050919050565b60006104cd826104a2565b9050919050565b6104dd816104c2565b81146104e857600080fd5b50565b6000813590506104fa816104d4565b92915050565b60006020828403121561051657610515610437565b5b6000610524848285016104eb565b91505092915050565b60008115159050919050565b6105428161052d565b82525050565b600060208201905061055d6000830184610539565b92915050565b600067ffffffffffffffff82169050919050565b7f4e487b7100000000000000000000000000000000000000000000000000000000600052601160045260246000fd5b60006105b182610563565b91506105bc83610563565b92508167ffffffffffffffff04831182151516156105dd576105dc610577565b5b828202905092915050565b6105f1816104c2565b82525050565b600060408201905061060c60008301856105e8565b610619602083018461040d565b9392505050565b600060208201905061063560008301846105e8565b92915050565b61064481610403565b811461064f57600080fd5b50565b6000815190506106618161063b565b92915050565b60006020828403121561067d5761067c610437565b5b600061068b84828501610652565b91505092915050565b7f4e487b7100000000000000000000000000000000000000000000000000000000600052601260045260246000fd5b60006106ce82610403565b91506106d983610403565b9250826106e9576106e8610694565b5b828204905092915050565b60006106ff82610403565b915061070a83610403565b9250827fffffffffffffffffffffffffffffffffffffffffffffffffffffffffffffffff0382111561073f5761073e610577565b5b828201905092915050565b6000819050919050565b61076561076082610403565b61074a565b82525050565b60006107778285610754565b6020820191506107878284610754565b6020820191508190509392505050565b60006107a282610403565b91506107ad83610403565b9250826107bd576107bc610694565b5b828206905092915050565b60006107d38261043c565b91506107de8361043c565b92508260ff038211156107f4576107f3610577565b5b82820190509291505056fea26469706673582212201b401104c070c0a02f4ecec1c201b48d532773ec6766f4be24e498386bdf578b64736f6c634300080a0033",
  "immutableReferences": {},
  "source": "pragma solidity ^0.8.10;\r\nimport \"./TokenVote.sol\";\r\n\r\ncontract SistemaVotacion {\r\n    //assign Token contract to variable\r\n    TokenVote private token;\r\n    \r\n    mapping(address => bool) public listaYaPidieronToken;\r\n    uint256 votosOpcion1 = 0;\r\n    uint256 votosOpcion2 = 0;\r\n\r\n    constructor(TokenVote _token) public {\r\n        token = _token;\r\n    }\r\n\r\n    function vota(uint8 opcion) payable public {\r\n        uint256 balanceToken = token.balanceOf(msg.sender);\r\n\r\n        if ( balanceToken > 0){\r\n            uint256 numVotos = balanceToken/1000000000000000000;\r\n            if ( opcion == 1){\r\n                votosOpcion1 = votosOpcion1+numVotos;\r\n            }\r\n            if ( opcion == 2){\r\n                votosOpcion2 = votosOpcion2+numVotos;\r\n            }\r\n        }\r\n    }\r\n\r\n    function dameTokens() payable public {\r\n        if (listaYaPidieronToken[msg.sender] != true ){\r\n            uint256 numeroDeTokens = obtenerNumeroAleatorio() * 1000000000000000000;\r\n            token.mint(msg.sender, numeroDeTokens);\r\n            listaYaPidieronToken[msg.sender] = true;\r\n        } \r\n    }\r\n\r\n    function getVotosOpcion1() public view returns (uint256) {\r\n        return votosOpcion1;\r\n    }\r\n\r\n    function getVotosOpcion2() public view returns (uint256) {\r\n        return votosOpcion2;\r\n    }\r\n\r\n\r\n  function obtenerNumeroAleatorio() private returns (uint8) {\r\n        uint256 randomNumber = uint8(uint(keccak256(abi.encodePacked(block.timestamp, block.difficulty))) % 10) + 1;\r\n        return uint8(randomNumber);\r\n   }\r\n}\r\n",
  "sourcePath": "C:\\Users\\jorda\\Desktop\\Solidity\\2bnb-vote\\contracts\\SistemaVotacion.sol",
  "compiler": {
    "name": "solc",
    "version": "0.8.10+commit.fc410830.Emscripten.clang"
  },
  "schemaVersion": "3.4.16",
  "updatedAt": "2023-10-14T12:28:00.681Z",
  "networkType": "ethereum",
  "devdoc": {
    "kind": "dev",
    "methods": {},
    "version": 1
  },
  "userdoc": {
    "kind": "user",
    "methods": {},
    "version": 1
  }
}