{
  "contractName": "TokenTiket",
  "abi": [
    {
      "inputs": [],
      "stateMutability": "payable",
      "type": "constructor",
      "payable": true
    },
    {
      "anonymous": false,
      "inputs": [
        {
          "indexed": true,
          "internalType": "address",
          "name": "owner",
          "type": "address"
        },
        {
          "indexed": true,
          "internalType": "address",
          "name": "approved",
          "type": "address"
        },
        {
          "indexed": true,
          "internalType": "uint256",
          "name": "tokenId",
          "type": "uint256"
        }
      ],
      "name": "Approval",
      "type": "event"
    },
    {
      "anonymous": false,
      "inputs": [
        {
          "indexed": true,
          "internalType": "address",
          "name": "owner",
          "type": "address"
        },
        {
          "indexed": true,
          "internalType": "address",
          "name": "operator",
          "type": "address"
        },
        {
          "indexed": false,
          "internalType": "bool",
          "name": "approved",
          "type": "bool"
        }
      ],
      "name": "ApprovalForAll",
      "type": "event"
    },
    {
      "anonymous": false,
      "inputs": [
        {
          "indexed": true,
          "internalType": "address",
          "name": "from",
          "type": "address"
        },
        {
          "indexed": true,
          "internalType": "address",
          "name": "to",
          "type": "address"
        },
        {
          "indexed": true,
          "internalType": "uint256",
          "name": "tokenId",
          "type": "uint256"
        }
      ],
      "name": "Transfer",
      "type": "event"
    },
    {
      "inputs": [
        {
          "internalType": "address",
          "name": "to",
          "type": "address"
        },
        {
          "internalType": "uint256",
          "name": "tokenId",
          "type": "uint256"
        }
      ],
      "name": "approve",
      "outputs": [],
      "stateMutability": "nonpayable",
      "type": "function"
    },
    {
      "inputs": [
        {
          "internalType": "address",
          "name": "owner",
          "type": "address"
        }
      ],
      "name": "balanceOf",
      "outputs": [
        {
          "internalType": "uint256",
          "name": "",
          "type": "uint256"
        }
      ],
      "stateMutability": "view",
      "type": "function",
      "constant": true
    },
    {
      "inputs": [
        {
          "internalType": "uint256",
          "name": "tokenId",
          "type": "uint256"
        }
      ],
      "name": "getApproved",
      "outputs": [
        {
          "internalType": "address",
          "name": "",
          "type": "address"
        }
      ],
      "stateMutability": "view",
      "type": "function",
      "constant": true
    },
    {
      "inputs": [
        {
          "internalType": "address",
          "name": "owner",
          "type": "address"
        },
        {
          "internalType": "address",
          "name": "operator",
          "type": "address"
        }
      ],
      "name": "isApprovedForAll",
      "outputs": [
        {
          "internalType": "bool",
          "name": "",
          "type": "bool"
        }
      ],
      "stateMutability": "view",
      "type": "function",
      "constant": true
    },
    {
      "inputs": [],
      "name": "minter",
      "outputs": [
        {
          "internalType": "address",
          "name": "",
          "type": "address"
        }
      ],
      "stateMutability": "view",
      "type": "function",
      "constant": true
    },
    {
      "inputs": [],
      "name": "name",
      "outputs": [
        {
          "internalType": "string",
          "name": "",
          "type": "string"
        }
      ],
      "stateMutability": "view",
      "type": "function",
      "constant": true
    },
    {
      "inputs": [
        {
          "internalType": "uint256",
          "name": "tokenId",
          "type": "uint256"
        }
      ],
      "name": "ownerOf",
      "outputs": [
        {
          "internalType": "address",
          "name": "",
          "type": "address"
        }
      ],
      "stateMutability": "view",
      "type": "function",
      "constant": true
    },
    {
      "inputs": [
        {
          "internalType": "address",
          "name": "from",
          "type": "address"
        },
        {
          "internalType": "address",
          "name": "to",
          "type": "address"
        },
        {
          "internalType": "uint256",
          "name": "tokenId",
          "type": "uint256"
        }
      ],
      "name": "safeTransferFrom",
      "outputs": [],
      "stateMutability": "nonpayable",
      "type": "function"
    },
    {
      "inputs": [
        {
          "internalType": "address",
          "name": "from",
          "type": "address"
        },
        {
          "internalType": "address",
          "name": "to",
          "type": "address"
        },
        {
          "internalType": "uint256",
          "name": "tokenId",
          "type": "uint256"
        },
        {
          "internalType": "bytes",
          "name": "data",
          "type": "bytes"
        }
      ],
      "name": "safeTransferFrom",
      "outputs": [],
      "stateMutability": "nonpayable",
      "type": "function"
    },
    {
      "inputs": [
        {
          "internalType": "address",
          "name": "operator",
          "type": "address"
        },
        {
          "internalType": "bool",
          "name": "approved",
          "type": "bool"
        }
      ],
      "name": "setApprovalForAll",
      "outputs": [],
      "stateMutability": "nonpayable",
      "type": "function"
    },
    {
      "inputs": [
        {
          "internalType": "bytes4",
          "name": "interfaceId",
          "type": "bytes4"
        }
      ],
      "name": "supportsInterface",
      "outputs": [
        {
          "internalType": "bool",
          "name": "",
          "type": "bool"
        }
      ],
      "stateMutability": "view",
      "type": "function",
      "constant": true
    },
    {
      "inputs": [],
      "name": "symbol",
      "outputs": [
        {
          "internalType": "string",
          "name": "",
          "type": "string"
        }
      ],
      "stateMutability": "view",
      "type": "function",
      "constant": true
    },
    {
      "inputs": [
        {
          "internalType": "uint256",
          "name": "tokenId",
          "type": "uint256"
        }
      ],
      "name": "tokenURI",
      "outputs": [
        {
          "internalType": "string",
          "name": "",
          "type": "string"
        }
      ],
      "stateMutability": "view",
      "type": "function",
      "constant": true
    },
    {
      "inputs": [
        {
          "internalType": "address",
          "name": "from",
          "type": "address"
        },
        {
          "internalType": "address",
          "name": "to",
          "type": "address"
        },
        {
          "internalType": "uint256",
          "name": "tokenId",
          "type": "uint256"
        }
      ],
      "name": "transferFrom",
      "outputs": [],
      "stateMutability": "nonpayable",
      "type": "function"
    },
    {
      "inputs": [
        {
          "internalType": "address",
          "name": "account",
          "type": "address"
        },
        {
          "internalType": "uint256",
          "name": "tokenId",
          "type": "uint256"
        },
        {
          "internalType": "string",
          "name": "nombreConcierto",
          "type": "string"
        },
        {
          "internalType": "string",
          "name": "fechaConcierto",
          "type": "string"
        }
      ],
      "name": "mintConInfo",
      "outputs": [],
      "stateMutability": "nonpayable",
      "type": "function"
    },
    {
      "inputs": [
        {
          "internalType": "address",
          "name": "account",
          "type": "address"
        },
        {
          "internalType": "uint256",
          "name": "tokenId",
          "type": "uint256"
        }
      ],
      "name": "mint",
      "outputs": [],
      "stateMutability": "nonpayable",
      "type": "function"
    },
    {
      "inputs": [
        {
          "internalType": "address",
          "name": "nuevoMinter",
          "type": "address"
        }
      ],
      "name": "passMinterRole",
      "outputs": [
        {
          "internalType": "bool",
          "name": "",
          "type": "bool"
        }
      ],
      "stateMutability": "payable",
      "type": "function",
      "payable": true
    }
  ],
  "bytecode": "0x60806040526040518060400160405280600881526020017f54696b65744e46540000000000000000000000000000000000000000000000008152506040518060400160405280600881526020017f54696b65744e4654000000000000000000000000000000000000000000000000815250816000908051906020019062000088929190620000eb565b508060019080519060200190620000a1929190620000eb565b50505033600660006101000a81548173ffffffffffffffffffffffffffffffffffffffff021916908373ffffffffffffffffffffffffffffffffffffffff16021790555062000200565b828054620000f990620001ca565b90600052602060002090601f0160209004810192826200011d576000855562000169565b82601f106200013857805160ff191683800117855562000169565b8280016001018555821562000169579182015b82811115620001685782518255916020019190600101906200014b565b5b5090506200017891906200017c565b5090565b5b80821115620001975760008160009055506001016200017d565b5090565b7f4e487b7100000000000000000000000000000000000000000000000000000000600052602260045260246000fd5b60006002820490506001821680620001e357607f821691505b60208210811415620001fa57620001f96200019b565b5b50919050565b612be880620002106000396000f3fe6080604052600436106100fe5760003560e01c80636352211e11610095578063a22cb46511610064578063a22cb46514610345578063b88d4fde1461036e578063c87b56dd14610397578063d7fc5b15146103d4578063e985e9c514610404576100fe565b80636352211e1461027757806370a08231146102b457806387774e08146102f157806395d89b411461031a576100fe565b8063095ea7b3116100d1578063095ea7b3146101d357806323b872dd146101fc57806340c10f191461022557806342842e0e1461024e576100fe565b806301ffc9a71461010357806306fdde0314610140578063075461721461016b578063081812fc14610196575b600080fd5b34801561010f57600080fd5b5061012a60048036038101906101259190611c4f565b610441565b6040516101379190611c97565b60405180910390f35b34801561014c57600080fd5b50610155610523565b6040516101629190611d4b565b60405180910390f35b34801561017757600080fd5b506101806105b5565b60405161018d9190611dae565b60405180910390f35b3480156101a257600080fd5b506101bd60048036038101906101b89190611dff565b6105db565b6040516101ca9190611dae565b60405180910390f35b3480156101df57600080fd5b506101fa60048036038101906101f59190611e58565b610621565b005b34801561020857600080fd5b50610223600480360381019061021e9190611e98565b610739565b005b34801561023157600080fd5b5061024c60048036038101906102479190611e58565b610799565b005b34801561025a57600080fd5b5061027560048036038101906102709190611e98565b610837565b005b34801561028357600080fd5b5061029e60048036038101906102999190611dff565b610857565b6040516102ab9190611dae565b60405180910390f35b3480156102c057600080fd5b506102db60048036038101906102d69190611eeb565b6108de565b6040516102e89190611f27565b60405180910390f35b3480156102fd57600080fd5b5061031860048036038101906103139190612077565b610996565b005b34801561032657600080fd5b5061032f610a0b565b60405161033c9190611d4b565b60405180910390f35b34801561035157600080fd5b5061036c60048036038101906103679190612142565b610a9d565b005b34801561037a57600080fd5b5061039560048036038101906103909190612223565b610ab3565b005b3480156103a357600080fd5b506103be60048036038101906103b99190611dff565b610b15565b6040516103cb9190611d4b565b60405180910390f35b6103ee60048036038101906103e99190611eeb565b610b7d565b6040516103fb9190611c97565b60405180910390f35b34801561041057600080fd5b5061042b600480360381019061042691906122a6565b610c29565b6040516104389190611c97565b60405180910390f35b60007f80ac58cd000000000000000000000000000000000000000000000000000000007bffffffffffffffffffffffffffffffffffffffffffffffffffffffff1916827bffffffffffffffffffffffffffffffffffffffffffffffffffffffff1916148061050c57507f5b5e139f000000000000000000000000000000000000000000000000000000007bffffffffffffffffffffffffffffffffffffffffffffffffffffffff1916827bffffffffffffffffffffffffffffffffffffffffffffffffffffffff1916145b8061051c575061051b82610cbd565b5b9050919050565b60606000805461053290612315565b80601f016020809104026020016040519081016040528092919081815260200182805461055e90612315565b80156105ab5780601f10610580576101008083540402835291602001916105ab565b820191906000526020600020905b81548152906001019060200180831161058e57829003601f168201915b5050505050905090565b600660009054906101000a900473ffffffffffffffffffffffffffffffffffffffff1681565b60006105e682610d27565b6004600083815260200190815260200160002060009054906101000a900473ffffffffffffffffffffffffffffffffffffffff169050919050565b600061062c82610857565b90508073ffffffffffffffffffffffffffffffffffffffff168373ffffffffffffffffffffffffffffffffffffffff16141561069d576040517f08c379a0000000000000000000000000000000000000000000000000000000008152600401610694906123b9565b60405180910390fd5b8073ffffffffffffffffffffffffffffffffffffffff166106bc610d72565b73ffffffffffffffffffffffffffffffffffffffff1614806106eb57506106ea816106e5610d72565b610c29565b5b61072a576040517f08c379a00000000000000000000000000000000000000000000000000000000081526004016107219061244b565b60405180910390fd5b6107348383610d7a565b505050565b61074a610744610d72565b82610e33565b610789576040517f08c379a0000000000000000000000000000000000000000000000000000000008152600401610780906124dd565b60405180910390fd5b610794838383610ec8565b505050565b600660009054906101000a900473ffffffffffffffffffffffffffffffffffffffff1673ffffffffffffffffffffffffffffffffffffffff163373ffffffffffffffffffffffffffffffffffffffff1614610829576040517f08c379a00000000000000000000000000000000000000000000000000000000081526004016108209061256f565b60405180910390fd5b61083382826111c2565b5050565b61085283838360405180602001604052806000815250610ab3565b505050565b600080610863836113e0565b9050600073ffffffffffffffffffffffffffffffffffffffff168173ffffffffffffffffffffffffffffffffffffffff1614156108d5576040517f08c379a00000000000000000000000000000000000000000000000000000000081526004016108cc906125db565b60405180910390fd5b80915050919050565b60008073ffffffffffffffffffffffffffffffffffffffff168273ffffffffffffffffffffffffffffffffffffffff16141561094f576040517f08c379a00000000000000000000000000000000000000000000000000000000081526004016109469061266d565b60405180910390fd5b600360008373ffffffffffffffffffffffffffffffffffffffff1673ffffffffffffffffffffffffffffffffffffffff168152602001908152602001600020549050919050565b6109a084846111c2565b6040518060400160405280838152602001828152506007600085815260200190815260200160002060008201518160000190805190602001906109e4929190611b40565b506020820151816001019080519060200190610a01929190611b40565b5090505050505050565b606060018054610a1a90612315565b80601f0160208091040260200160405190810160405280929190818152602001828054610a4690612315565b8015610a935780601f10610a6857610100808354040283529160200191610a93565b820191906000526020600020905b815481529060010190602001808311610a7657829003601f168201915b5050505050905090565b610aaf610aa8610d72565b838361141d565b5050565b610ac4610abe610d72565b83610e33565b610b03576040517f08c379a0000000000000000000000000000000000000000000000000000000008152600401610afa906124dd565b60405180910390fd5b610b0f8484848461158a565b50505050565b6060610b2082610d27565b6000610b2a6115e6565b90506000815111610b4a5760405180602001604052806000815250610b75565b80610b54846115fd565b604051602001610b659291906126c9565b6040516020818303038152906040525b915050919050565b6000600660009054906101000a900473ffffffffffffffffffffffffffffffffffffffff1673ffffffffffffffffffffffffffffffffffffffff163373ffffffffffffffffffffffffffffffffffffffff161415610c1f5781600660006101000a81548173ffffffffffffffffffffffffffffffffffffffff021916908373ffffffffffffffffffffffffffffffffffffffff16021790555060019050610c24565b600090505b919050565b6000600560008473ffffffffffffffffffffffffffffffffffffffff1673ffffffffffffffffffffffffffffffffffffffff16815260200190815260200160002060008373ffffffffffffffffffffffffffffffffffffffff1673ffffffffffffffffffffffffffffffffffffffff16815260200190815260200160002060009054906101000a900460ff16905092915050565b60007f01ffc9a7000000000000000000000000000000000000000000000000000000007bffffffffffffffffffffffffffffffffffffffffffffffffffffffff1916827bffffffffffffffffffffffffffffffffffffffffffffffffffffffff1916149050919050565b610d30816116d5565b610d6f576040517f08c379a0000000000000000000000000000000000000000000000000000000008152600401610d66906125db565b60405180910390fd5b50565b600033905090565b816004600083815260200190815260200160002060006101000a81548173ffffffffffffffffffffffffffffffffffffffff021916908373ffffffffffffffffffffffffffffffffffffffff160217905550808273ffffffffffffffffffffffffffffffffffffffff16610ded83610857565b73ffffffffffffffffffffffffffffffffffffffff167f8c5be1e5ebec7d5bd14f71427d1e84f3dd0314c0f7b2291e5b200ac8c7c3b92560405160405180910390a45050565b600080610e3f83610857565b90508073ffffffffffffffffffffffffffffffffffffffff168473ffffffffffffffffffffffffffffffffffffffff161480610e815750610e808185610c29565b5b80610ebf57508373ffffffffffffffffffffffffffffffffffffffff16610ea7846105db565b73ffffffffffffffffffffffffffffffffffffffff16145b91505092915050565b8273ffffffffffffffffffffffffffffffffffffffff16610ee882610857565b73ffffffffffffffffffffffffffffffffffffffff1614610f3e576040517f08c379a0000000000000000000000000000000000000000000000000000000008152600401610f359061275f565b60405180910390fd5b600073ffffffffffffffffffffffffffffffffffffffff168273ffffffffffffffffffffffffffffffffffffffff161415610fae576040517f08c379a0000000000000000000000000000000000000000000000000000000008152600401610fa5906127f1565b60405180910390fd5b610fbb8383836001611716565b8273ffffffffffffffffffffffffffffffffffffffff16610fdb82610857565b73ffffffffffffffffffffffffffffffffffffffff1614611031576040517f08c379a00000000000000000000000000000000000000000000000000000000081526004016110289061275f565b60405180910390fd5b6004600082815260200190815260200160002060006101000a81549073ffffffffffffffffffffffffffffffffffffffff02191690556001600360008573ffffffffffffffffffffffffffffffffffffffff1673ffffffffffffffffffffffffffffffffffffffff168152602001908152602001600020600082825403925050819055506001600360008473ffffffffffffffffffffffffffffffffffffffff1673ffffffffffffffffffffffffffffffffffffffff16815260200190815260200160002060008282540192505081905550816002600083815260200190815260200160002060006101000a81548173ffffffffffffffffffffffffffffffffffffffff021916908373ffffffffffffffffffffffffffffffffffffffff160217905550808273ffffffffffffffffffffffffffffffffffffffff168473ffffffffffffffffffffffffffffffffffffffff167fddf252ad1be2c89b69c2b068fc378daa952ba7f163c4a11628f55a4df523b3ef60405160405180910390a46111bd838383600161183c565b505050565b600073ffffffffffffffffffffffffffffffffffffffff168273ffffffffffffffffffffffffffffffffffffffff161415611232576040517f08c379a00000000000000000000000000000000000000000000000000000000081526004016112299061285d565b60405180910390fd5b61123b816116d5565b1561127b576040517f08c379a0000000000000000000000000000000000000000000000000000000008152600401611272906128c9565b60405180910390fd5b611289600083836001611716565b611292816116d5565b156112d2576040517f08c379a00000000000000000000000000000000000000000000000000000000081526004016112c9906128c9565b60405180910390fd5b6001600360008473ffffffffffffffffffffffffffffffffffffffff1673ffffffffffffffffffffffffffffffffffffffff16815260200190815260200160002060008282540192505081905550816002600083815260200190815260200160002060006101000a81548173ffffffffffffffffffffffffffffffffffffffff021916908373ffffffffffffffffffffffffffffffffffffffff160217905550808273ffffffffffffffffffffffffffffffffffffffff16600073ffffffffffffffffffffffffffffffffffffffff167fddf252ad1be2c89b69c2b068fc378daa952ba7f163c4a11628f55a4df523b3ef60405160405180910390a46113dc60008383600161183c565b5050565b60006002600083815260200190815260200160002060009054906101000a900473ffffffffffffffffffffffffffffffffffffffff169050919050565b8173ffffffffffffffffffffffffffffffffffffffff168373ffffffffffffffffffffffffffffffffffffffff16141561148c576040517f08c379a000000000000000000000000000000000000000000000000000000000815260040161148390612935565b60405180910390fd5b80600560008573ffffffffffffffffffffffffffffffffffffffff1673ffffffffffffffffffffffffffffffffffffffff16815260200190815260200160002060008473ffffffffffffffffffffffffffffffffffffffff1673ffffffffffffffffffffffffffffffffffffffff16815260200190815260200160002060006101000a81548160ff0219169083151502179055508173ffffffffffffffffffffffffffffffffffffffff168373ffffffffffffffffffffffffffffffffffffffff167f17307eab39ab6107e8899845ad3d59bd9653f200f220920489ca2b5937696c318360405161157d9190611c97565b60405180910390a3505050565b611595848484610ec8565b6115a184848484611842565b6115e0576040517f08c379a00000000000000000000000000000000000000000000000000000000081526004016115d7906129c7565b60405180910390fd5b50505050565b606060405180602001604052806000815250905090565b60606000600161160c846119ca565b01905060008167ffffffffffffffff81111561162b5761162a611f4c565b5b6040519080825280601f01601f19166020018201604052801561165d5781602001600182028036833780820191505090505b509050600082602001820190505b6001156116ca578080600190039150507f3031323334353637383961626364656600000000000000000000000000000000600a86061a8153600a85816116b4576116b36129e7565b5b04945060008514156116c5576116ca565b61166b565b819350505050919050565b60008073ffffffffffffffffffffffffffffffffffffffff166116f7836113e0565b73ffffffffffffffffffffffffffffffffffffffff1614159050919050565b600181111561183657600073ffffffffffffffffffffffffffffffffffffffff168473ffffffffffffffffffffffffffffffffffffffff16146117aa5780600360008673ffffffffffffffffffffffffffffffffffffffff1673ffffffffffffffffffffffffffffffffffffffff16815260200190815260200160002060008282546117a29190612a45565b925050819055505b600073ffffffffffffffffffffffffffffffffffffffff168373ffffffffffffffffffffffffffffffffffffffff16146118355780600360008573ffffffffffffffffffffffffffffffffffffffff1673ffffffffffffffffffffffffffffffffffffffff168152602001908152602001600020600082825461182d9190612a79565b925050819055505b5b50505050565b50505050565b60006118638473ffffffffffffffffffffffffffffffffffffffff16611b1d565b156119bd578373ffffffffffffffffffffffffffffffffffffffff1663150b7a0261188c610d72565b8786866040518563ffffffff1660e01b81526004016118ae9493929190612b24565b6020604051808303816000875af19250505080156118ea57506040513d601f19601f820116820180604052508101906118e79190612b85565b60015b61196d573d806000811461191a576040519150601f19603f3d011682016040523d82523d6000602084013e61191f565b606091505b50600081511415611965576040517f08c379a000000000000000000000000000000000000000000000000000000000815260040161195c906129c7565b60405180910390fd5b805181602001fd5b63150b7a0260e01b7bffffffffffffffffffffffffffffffffffffffffffffffffffffffff1916817bffffffffffffffffffffffffffffffffffffffffffffffffffffffff1916149150506119c2565b600190505b949350505050565b600080600090507a184f03e93ff9f4daa797ed6e38ed64bf6a1f0100000000000000008310611a28577a184f03e93ff9f4daa797ed6e38ed64bf6a1f0100000000000000008381611a1e57611a1d6129e7565b5b0492506040810190505b6d04ee2d6d415b85acef81000000008310611a65576d04ee2d6d415b85acef81000000008381611a5b57611a5a6129e7565b5b0492506020810190505b662386f26fc100008310611a9457662386f26fc100008381611a8a57611a896129e7565b5b0492506010810190505b6305f5e1008310611abd576305f5e1008381611ab357611ab26129e7565b5b0492506008810190505b6127108310611ae2576127108381611ad857611ad76129e7565b5b0492506004810190505b60648310611b055760648381611afb57611afa6129e7565b5b0492506002810190505b600a8310611b14576001810190505b80915050919050565b6000808273ffffffffffffffffffffffffffffffffffffffff163b119050919050565b828054611b4c90612315565b90600052602060002090601f016020900481019282611b6e5760008555611bb5565b82601f10611b8757805160ff1916838001178555611bb5565b82800160010185558215611bb5579182015b82811115611bb4578251825591602001919060010190611b99565b5b509050611bc29190611bc6565b5090565b5b80821115611bdf576000816000905550600101611bc7565b5090565b6000604051905090565b600080fd5b600080fd5b60007fffffffff0000000000000000000000000000000000000000000000000000000082169050919050565b611c2c81611bf7565b8114611c3757600080fd5b50565b600081359050611c4981611c23565b92915050565b600060208284031215611c6557611c64611bed565b5b6000611c7384828501611c3a565b91505092915050565b60008115159050919050565b611c9181611c7c565b82525050565b6000602082019050611cac6000830184611c88565b92915050565b600081519050919050565b600082825260208201905092915050565b60005b83811015611cec578082015181840152602081019050611cd1565b83811115611cfb576000848401525b50505050565b6000601f19601f8301169050919050565b6000611d1d82611cb2565b611d278185611cbd565b9350611d37818560208601611cce565b611d4081611d01565b840191505092915050565b60006020820190508181036000830152611d658184611d12565b905092915050565b600073ffffffffffffffffffffffffffffffffffffffff82169050919050565b6000611d9882611d6d565b9050919050565b611da881611d8d565b82525050565b6000602082019050611dc36000830184611d9f565b92915050565b6000819050919050565b611ddc81611dc9565b8114611de757600080fd5b50565b600081359050611df981611dd3565b92915050565b600060208284031215611e1557611e14611bed565b5b6000611e2384828501611dea565b91505092915050565b611e3581611d8d565b8114611e4057600080fd5b50565b600081359050611e5281611e2c565b92915050565b60008060408385031215611e6f57611e6e611bed565b5b6000611e7d85828601611e43565b9250506020611e8e85828601611dea565b9150509250929050565b600080600060608486031215611eb157611eb0611bed565b5b6000611ebf86828701611e43565b9350506020611ed086828701611e43565b9250506040611ee186828701611dea565b9150509250925092565b600060208284031215611f0157611f00611bed565b5b6000611f0f84828501611e43565b91505092915050565b611f2181611dc9565b82525050565b6000602082019050611f3c6000830184611f18565b92915050565b600080fd5b600080fd5b7f4e487b7100000000000000000000000000000000000000000000000000000000600052604160045260246000fd5b611f8482611d01565b810181811067ffffffffffffffff82111715611fa357611fa2611f4c565b5b80604052505050565b6000611fb6611be3565b9050611fc28282611f7b565b919050565b600067ffffffffffffffff821115611fe257611fe1611f4c565b5b611feb82611d01565b9050602081019050919050565b82818337600083830152505050565b600061201a61201584611fc7565b611fac565b90508281526020810184848401111561203657612035611f47565b5b612041848285611ff8565b509392505050565b600082601f83011261205e5761205d611f42565b5b813561206e848260208601612007565b91505092915050565b6000806000806080858703121561209157612090611bed565b5b600061209f87828801611e43565b94505060206120b087828801611dea565b935050604085013567ffffffffffffffff8111156120d1576120d0611bf2565b5b6120dd87828801612049565b925050606085013567ffffffffffffffff8111156120fe576120fd611bf2565b5b61210a87828801612049565b91505092959194509250565b61211f81611c7c565b811461212a57600080fd5b50565b60008135905061213c81612116565b92915050565b6000806040838503121561215957612158611bed565b5b600061216785828601611e43565b92505060206121788582860161212d565b9150509250929050565b600067ffffffffffffffff82111561219d5761219c611f4c565b5b6121a682611d01565b9050602081019050919050565b60006121c66121c184612182565b611fac565b9050828152602081018484840111156121e2576121e1611f47565b5b6121ed848285611ff8565b509392505050565b600082601f83011261220a57612209611f42565b5b813561221a8482602086016121b3565b91505092915050565b6000806000806080858703121561223d5761223c611bed565b5b600061224b87828801611e43565b945050602061225c87828801611e43565b935050604061226d87828801611dea565b925050606085013567ffffffffffffffff81111561228e5761228d611bf2565b5b61229a878288016121f5565b91505092959194509250565b600080604083850312156122bd576122bc611bed565b5b60006122cb85828601611e43565b92505060206122dc85828601611e43565b9150509250929050565b7f4e487b7100000000000000000000000000000000000000000000000000000000600052602260045260246000fd5b6000600282049050600182168061232d57607f821691505b60208210811415612341576123406122e6565b5b50919050565b7f4552433732313a20617070726f76616c20746f2063757272656e74206f776e6560008201527f7200000000000000000000000000000000000000000000000000000000000000602082015250565b60006123a3602183611cbd565b91506123ae82612347565b604082019050919050565b600060208201905081810360008301526123d281612396565b9050919050565b7f4552433732313a20617070726f76652063616c6c6572206973206e6f7420746f60008201527f6b656e206f776e6572206f7220617070726f76656420666f7220616c6c000000602082015250565b6000612435603d83611cbd565b9150612440826123d9565b604082019050919050565b6000602082019050818103600083015261246481612428565b9050919050565b7f4552433732313a2063616c6c6572206973206e6f7420746f6b656e206f776e6560008201527f72206f7220617070726f76656400000000000000000000000000000000000000602082015250565b60006124c7602d83611cbd565b91506124d28261246b565b604082019050919050565b600060208201905081810360008301526124f6816124ba565b9050919050565b7f4572726f722c206d73672e73656e646572206973206e6f7420746865206d696e60008201527f7465720000000000000000000000000000000000000000000000000000000000602082015250565b6000612559602383611cbd565b9150612564826124fd565b604082019050919050565b600060208201905081810360008301526125888161254c565b9050919050565b7f4552433732313a20696e76616c696420746f6b656e2049440000000000000000600082015250565b60006125c5601883611cbd565b91506125d08261258f565b602082019050919050565b600060208201905081810360008301526125f4816125b8565b9050919050565b7f4552433732313a2061646472657373207a65726f206973206e6f74206120766160008201527f6c6964206f776e65720000000000000000000000000000000000000000000000602082015250565b6000612657602983611cbd565b9150612662826125fb565b604082019050919050565b600060208201905081810360008301526126868161264a565b9050919050565b600081905092915050565b60006126a382611cb2565b6126ad818561268d565b93506126bd818560208601611cce565b80840191505092915050565b60006126d58285612698565b91506126e18284612698565b91508190509392505050565b7f4552433732313a207472616e736665722066726f6d20696e636f72726563742060008201527f6f776e6572000000000000000000000000000000000000000000000000000000602082015250565b6000612749602583611cbd565b9150612754826126ed565b604082019050919050565b600060208201905081810360008301526127788161273c565b9050919050565b7f4552433732313a207472616e7366657220746f20746865207a65726f2061646460008201527f7265737300000000000000000000000000000000000000000000000000000000602082015250565b60006127db602483611cbd565b91506127e68261277f565b604082019050919050565b6000602082019050818103600083015261280a816127ce565b9050919050565b7f4552433732313a206d696e7420746f20746865207a65726f2061646472657373600082015250565b6000612847602083611cbd565b915061285282612811565b602082019050919050565b600060208201905081810360008301526128768161283a565b9050919050565b7f4552433732313a20746f6b656e20616c7265616479206d696e74656400000000600082015250565b60006128b3601c83611cbd565b91506128be8261287d565b602082019050919050565b600060208201905081810360008301526128e2816128a6565b9050919050565b7f4552433732313a20617070726f766520746f2063616c6c657200000000000000600082015250565b600061291f601983611cbd565b915061292a826128e9565b602082019050919050565b6000602082019050818103600083015261294e81612912565b9050919050565b7f4552433732313a207472616e7366657220746f206e6f6e20455243373231526560008201527f63656976657220696d706c656d656e7465720000000000000000000000000000602082015250565b60006129b1603283611cbd565b91506129bc82612955565b604082019050919050565b600060208201905081810360008301526129e0816129a4565b9050919050565b7f4e487b7100000000000000000000000000000000000000000000000000000000600052601260045260246000fd5b7f4e487b7100000000000000000000000000000000000000000000000000000000600052601160045260246000fd5b6000612a5082611dc9565b9150612a5b83611dc9565b925082821015612a6e57612a6d612a16565b5b828203905092915050565b6000612a8482611dc9565b9150612a8f83611dc9565b9250827fffffffffffffffffffffffffffffffffffffffffffffffffffffffffffffffff03821115612ac457612ac3612a16565b5b828201905092915050565b600081519050919050565b600082825260208201905092915050565b6000612af682612acf565b612b008185612ada565b9350612b10818560208601611cce565b612b1981611d01565b840191505092915050565b6000608082019050612b396000830187611d9f565b612b466020830186611d9f565b612b536040830185611f18565b8181036060830152612b658184612aeb565b905095945050505050565b600081519050612b7f81611c23565b92915050565b600060208284031215612b9b57612b9a611bed565b5b6000612ba984828501612b70565b9150509291505056fea264697066735822122026aec47b94f4f8f60f4b46a45fb36b8c8bfa1f538917704cdde1df58942c970564736f6c634300080a0033",
  "immutableReferences": {},
  "source": "pragma solidity ^0.8.10;\r\nimport \"@openzeppelin/contracts/token/ERC721/ERC721.sol\";\r\nimport \"@openzeppelin/contracts/access/Ownable.sol\";\r\n\r\ncontract TokenTiket is ERC721 {\r\n    // direcin del minter, cartera que puede iniciar la generacin de nuevos tokens\r\n    address public minter;\r\n\r\n    struct Informacion  {\r\n        string nombreConcierto;\r\n        string fechaConcierto;\r\n    }\r\n\r\n    mapping(uint256 => Informacion) private tokenInformacion;\r\n\r\n    constructor() public payable ERC721(\"TiketNFT\", \"TiketNFT\") {\r\n        // asignacin del minter inicial\r\n        minter = msg.sender;\r\n    }\r\n\r\n    function mintConInfo(address account, uint256 tokenId, string memory nombreConcierto, string memory fechaConcierto) public  {\r\n        _mint(account, tokenId);\r\n        tokenInformacion[tokenId] = Informacion(nombreConcierto, fechaConcierto);\r\n    }\r\n\r\n    function mint(address account, uint256 tokenId) public {\r\n        require(msg.sender == minter, 'Error, msg.sender is not the minter');\r\n        _mint(account, tokenId);\r\n    }\r\n\r\n    function passMinterRole(address nuevoMinter) payable public returns (bool){\r\n        if (msg.sender == minter){\r\n            minter = nuevoMinter;\r\n            return true;\r\n        } else {\r\n            return false;\r\n        }\r\n    }\r\n\r\n}\r\n",
  "sourcePath": "C:\\Users\\jorda\\Desktop\\Solidity\\2bnb-NFT\\contracts\\TokenTiket.sol",
  "compiler": {
    "name": "solc",
    "version": "0.8.10+commit.fc410830.Emscripten.clang"
  },
  "schemaVersion": "3.4.16",
  "updatedAt": "2023-10-14T13:03:10.082Z",
  "networkType": "ethereum",
  "devdoc": {
    "kind": "dev",
    "methods": {
      "approve(address,uint256)": {
        "details": "See {IERC721-approve}."
      },
      "balanceOf(address)": {
        "details": "See {IERC721-balanceOf}."
      },
      "getApproved(uint256)": {
        "details": "See {IERC721-getApproved}."
      },
      "isApprovedForAll(address,address)": {
        "details": "See {IERC721-isApprovedForAll}."
      },
      "name()": {
        "details": "See {IERC721Metadata-name}."
      },
      "ownerOf(uint256)": {
        "details": "See {IERC721-ownerOf}."
      },
      "safeTransferFrom(address,address,uint256)": {
        "details": "See {IERC721-safeTransferFrom}."
      },
      "safeTransferFrom(address,address,uint256,bytes)": {
        "details": "See {IERC721-safeTransferFrom}."
      },
      "setApprovalForAll(address,bool)": {
        "details": "See {IERC721-setApprovalForAll}."
      },
      "supportsInterface(bytes4)": {
        "details": "See {IERC165-supportsInterface}."
      },
      "symbol()": {
        "details": "See {IERC721Metadata-symbol}."
      },
      "tokenURI(uint256)": {
        "details": "See {IERC721Metadata-tokenURI}."
      },
      "transferFrom(address,address,uint256)": {
        "details": "See {IERC721-transferFrom}."
      }
    },
    "version": 1
  },
  "userdoc": {
    "kind": "user",
    "methods": {},
    "version": 1
  }
}