{
  "contractName": "VentaTikets",
  "abi": [
    {
      "inputs": [
        {
          "internalType": "contract TokenTiket",
          "name": "_token",
          "type": "address"
        }
      ],
      "stateMutability": "nonpayable",
      "type": "constructor"
    },
    {
      "inputs": [
        {
          "internalType": "address",
          "name": "",
          "type": "address"
        }
      ],
      "name": "listaYaPidieronToken",
      "outputs": [
        {
          "internalType": "bool",
          "name": "",
          "type": "bool"
        }
      ],
      "stateMutability": "view",
      "type": "function",
      "constant": true
    },
    {
      "inputs": [
        {
          "internalType": "uint256",
          "name": "",
          "type": "uint256"
        }
      ],
      "name": "tikets",
      "outputs": [
        {
          "internalType": "address",
          "name": "",
          "type": "address"
        }
      ],
      "stateMutability": "view",
      "type": "function",
      "constant": true
    },
    {
      "inputs": [
        {
          "internalType": "uint256",
          "name": "tiketIndex",
          "type": "uint256"
        }
      ],
      "name": "buyTiket",
      "outputs": [
        {
          "internalType": "bool",
          "name": "",
          "type": "bool"
        }
      ],
      "stateMutability": "nonpayable",
      "type": "function"
    },
    {
      "inputs": [],
      "name": "getTikets",
      "outputs": [
        {
          "internalType": "address[16]",
          "name": "",
          "type": "address[16]"
        }
      ],
      "stateMutability": "view",
      "type": "function",
      "constant": true
    }
  ],
  "bytecode": "0x60806040526000601255600060135534801561001a57600080fd5b50604051610832380380610832833981810160405281019061003c91906100f7565b806000806101000a81548173ffffffffffffffffffffffffffffffffffffffff021916908373ffffffffffffffffffffffffffffffffffffffff16021790555050610124565b600080fd5b600073ffffffffffffffffffffffffffffffffffffffff82169050919050565b60006100b282610087565b9050919050565b60006100c4826100a7565b9050919050565b6100d4816100b9565b81146100df57600080fd5b50565b6000815190506100f1816100cb565b92915050565b60006020828403121561010d5761010c610082565b5b600061011b848285016100e2565b91505092915050565b6106ff806101336000396000f3fe608060405234801561001057600080fd5b506004361061004c5760003560e01c80634d63e206146100515780638aeeae49146100815780638f627444146100b1578063f2130866146100cf575b600080fd5b61006b600480360381019061006691906103b4565b6100ff565b6040516100789190610422565b60405180910390f35b61009b600480360381019061009691906103b4565b610135565b6040516100a89190610458565b60405180910390f35b6100b96102b5565b6040516100c6919061051e565b60405180910390f35b6100e960048036038101906100e49190610566565b610336565b6040516100f69190610458565b60405180910390f35b6001816010811061010f57600080fd5b016000915054906101000a900473ffffffffffffffffffffffffffffffffffffffff1681565b60008082101580156101485750600f8211155b61015157600080fd5b600060019050600073ffffffffffffffffffffffffffffffffffffffff166001846010811061018357610182610593565b5b0160009054906101000a900473ffffffffffffffffffffffffffffffffffffffff1673ffffffffffffffffffffffffffffffffffffffff1614156102a75733600184601081106101d6576101d5610593565b5b0160006101000a81548173ffffffffffffffffffffffffffffffffffffffff021916908373ffffffffffffffffffffffffffffffffffffffff16021790555060008054906101000a900473ffffffffffffffffffffffffffffffffffffffff1673ffffffffffffffffffffffffffffffffffffffff166387774e0833856040518363ffffffff1660e01b815260040161027092919061067a565b600060405180830381600087803b15801561028a57600080fd5b505af115801561029e573d6000803e3d6000fd5b505050506102ac565b600090505b80915050919050565b6102bd610356565b600160108060200260405190810160405280929190826010801561032c576020028201915b8160009054906101000a900473ffffffffffffffffffffffffffffffffffffffff1673ffffffffffffffffffffffffffffffffffffffff16815260200190600101908083116102e2575b5050505050905090565b60116020528060005260406000206000915054906101000a900460ff1681565b604051806102000160405280601090602082028036833780820191505090505090565b600080fd5b6000819050919050565b6103918161037e565b811461039c57600080fd5b50565b6000813590506103ae81610388565b92915050565b6000602082840312156103ca576103c9610379565b5b60006103d88482850161039f565b91505092915050565b600073ffffffffffffffffffffffffffffffffffffffff82169050919050565b600061040c826103e1565b9050919050565b61041c81610401565b82525050565b60006020820190506104376000830184610413565b92915050565b60008115159050919050565b6104528161043d565b82525050565b600060208201905061046d6000830184610449565b92915050565b600060109050919050565b600081905092915050565b6000819050919050565b61049c81610401565b82525050565b60006104ae8383610493565b60208301905092915050565b6000602082019050919050565b6104d081610473565b6104da818461047e565b92506104e582610489565b8060005b838110156105165781516104fd87826104a2565b9650610508836104ba565b9250506001810190506104e9565b505050505050565b60006102008201905061053460008301846104c7565b92915050565b61054381610401565b811461054e57600080fd5b50565b6000813590506105608161053a565b92915050565b60006020828403121561057c5761057b610379565b5b600061058a84828501610551565b91505092915050565b7f4e487b7100000000000000000000000000000000000000000000000000000000600052603260045260246000fd5b6105cb8161037e565b82525050565b600082825260208201905092915050565b7f4143444300000000000000000000000000000000000000000000000000000000600082015250565b60006106186004836105d1565b9150610623826105e2565b602082019050919050565b7f32332d32332d3233000000000000000000000000000000000000000000000000600082015250565b60006106646008836105d1565b915061066f8261062e565b602082019050919050565b600060808201905061068f6000830185610413565b61069c60208301846105c2565b81810360408301526106ad8161060b565b905081810360608301526106c081610657565b9050939250505056fea2646970667358221220f74463fffa25e9122d78173fc1156d5311721cfd2e5eeaa9c24a86528fc2d92364736f6c634300080a0033",
  "immutableReferences": {},
  "source": "pragma solidity ^0.8.10;\r\nimport \"./TokenTiket.sol\";\r\n\r\ncontract VentaTikets {\r\n    //assign Token contract to variable\r\n    TokenTiket private token;\r\n    address[16] public tikets;\r\n    \r\n    mapping(address => bool) public listaYaPidieronToken;\r\n    uint256 votosOpcion1 = 0;\r\n    uint256 votosOpcion2 = 0;\r\n\r\n\r\n    function buyTiket(uint tiketIndex) public returns (bool) {\r\n        // Comprobacin\r\n        require(tiketIndex >= 0 && tiketIndex <= 15);\r\n\r\n        bool sucess = true;\r\n        \r\n        if ( tikets[tiketIndex] == address(0) ){\r\n            tikets[tiketIndex] = msg.sender;\r\n            token.mintConInfo(msg.sender, tiketIndex,\"ACDC\",\"23-23-23\");\r\n\r\n        } else {\r\n            sucess = false ;\r\n        }\r\n\r\n        return sucess;\r\n    }\r\n\r\n    constructor(TokenTiket _token) public {\r\n        token = _token;\r\n    }\r\n\r\n    function getTikets() public view returns (address[16] memory) {\r\n        return tikets;\r\n    }\r\n}\r\n",
  "sourcePath": "C:\\Users\\jorda\\Desktop\\Solidity\\2bnb-NFT\\contracts\\VentaTikets.sol",
  "compiler": {
    "name": "solc",
    "version": "0.8.10+commit.fc410830.Emscripten.clang"
  },
  "schemaVersion": "3.4.16",
  "updatedAt": "2023-10-14T13:03:10.090Z",
  "networkType": "ethereum",
  "devdoc": {
    "kind": "dev",
    "methods": {},
    "version": 1
  },
  "userdoc": {
    "kind": "user",
    "methods": {},
    "version": 1
  }
}